{
  "contractName": "CommonStateNames",
  "abi": [
    {
      "constant": true,
      "inputs": [],
      "name": "DRAFT",
      "outputs": [
        {
          "name": "",
          "type": "uint256"
        }
      ],
      "payable": false,
      "stateMutability": "view",
      "type": "function"
    },
    {
      "constant": true,
      "inputs": [],
      "name": "ACTIVE",
      "outputs": [
        {
          "name": "",
          "type": "uint256"
        }
      ],
      "payable": false,
      "stateMutability": "view",
      "type": "function"
    },
    {
      "constant": true,
      "inputs": [],
      "name": "TERMINATED",
      "outputs": [
        {
          "name": "",
          "type": "uint256"
        }
      ],
      "payable": false,
      "stateMutability": "view",
      "type": "function"
    }
  ],
  "bytecode": "0x608060405234801561001057600080fd5b5061010b806100206000396000f3006080604052600436106053576000357c0100000000000000000000000000000000000000000000000000000000900463ffffffff1680630762f731146058578063c90bd047146080578063dc04be851460a8575b600080fd5b348015606357600080fd5b50606a60d0565b6040518082815260200191505060405180910390f35b348015608b57600080fd5b50609260d5565b6040518082815260200191505060405180910390f35b34801560b357600080fd5b5060ba60da565b6040518082815260200191505060405180910390f35b600181565b600281565b6003815600a165627a7a72305820e6e00f8ebf43a483af175e099dfdd326b52e1b0b85d14ef9a2014737920db8f00029",
  "source": "pragma solidity ^0.4.0;\n\ncontract CommonStateNames {\n    uint public constant DRAFT = 1;\n    uint public constant ACTIVE = 2;\n    uint public constant TERMINATED = 3;\n}\n",
  "sourcePath": "/Users/julian/work-git/multisig-contracts/ethereum/contracts/CommonStateNames.sol",
  "compiler": {
    "name": "solc",
    "version": "0.4.24+commit.e67f0147.Emscripten.clang"
  },
  "schemaVersion": "2.0.1",
  "updatedAt": "2018-11-29T13:45:53.949Z"
}