{
  "contractName": "CommonStateNames",
  "abi": [
    {
      "constant": true,
      "inputs": [],
      "name": "DRAFT",
      "outputs": [
        {
          "name": "",
          "type": "uint256"
        }
      ],
      "payable": false,
      "stateMutability": "view",
      "type": "function"
    },
    {
      "constant": true,
      "inputs": [],
      "name": "EXPIRED",
      "outputs": [
        {
          "name": "",
          "type": "uint256"
        }
      ],
      "payable": false,
      "stateMutability": "view",
      "type": "function"
    },
    {
      "constant": true,
      "inputs": [],
      "name": "ACTIVE",
      "outputs": [
        {
          "name": "",
          "type": "uint256"
        }
      ],
      "payable": false,
      "stateMutability": "view",
      "type": "function"
    },
    {
      "constant": true,
      "inputs": [],
      "name": "TERMINATED",
      "outputs": [
        {
          "name": "",
          "type": "uint256"
        }
      ],
      "payable": false,
      "stateMutability": "view",
      "type": "function"
    },
    {
      "constant": true,
      "inputs": [],
      "name": "PAUSE",
      "outputs": [
        {
          "name": "",
          "type": "uint256"
        }
      ],
      "payable": false,
      "stateMutability": "view",
      "type": "function"
    }
  ],
  "bytecode": "0x608060405234801561001057600080fd5b5061018e806100206000396000f30060806040526004361061006d576000357c0100000000000000000000000000000000000000000000000000000000900463ffffffff1680630762f73114610072578063414ac85b1461009d578063c90bd047146100c8578063dc04be85146100f3578063e65fad971461011e575b600080fd5b34801561007e57600080fd5b50610087610149565b6040518082815260200191505060405180910390f35b3480156100a957600080fd5b506100b261014e565b6040518082815260200191505060405180910390f35b3480156100d457600080fd5b506100dd610153565b6040518082815260200191505060405180910390f35b3480156100ff57600080fd5b50610108610158565b6040518082815260200191505060405180910390f35b34801561012a57600080fd5b5061013361015d565b6040518082815260200191505060405180910390f35b600181565b600481565b600281565b600381565b6005815600a165627a7a72305820db301dc65f9d82fb6fa52a3e3bef23ab65f7f16ddce1efb534c87c6bb98e24660029",
  "source": "pragma solidity ^0.4.0;\n\ncontract CommonStateNames {\n    uint public constant DRAFT = 1;\n    uint public constant ACTIVE = 2;\n    uint public constant TERMINATED = 3;\n    uint public constant EXPIRED = 4;\n    uint public constant PAUSE = 5;\n}\n",
  "sourcePath": "/Users/julian/work-git/multisig-contracts/ethereum/contracts/CommonStateNames.sol",
  "compiler": {
    "name": "solc",
    "version": "0.4.24+commit.e67f0147.Emscripten.clang"
  },
  "schemaVersion": "2.0.1",
  "updatedAt": "2018-12-10T10:35:28.157Z"
}