{
  "contractName": "CommonStateNames",
  "abi": [
    {
      "constant": true,
      "inputs": [],
      "name": "DRAFT",
      "outputs": [
        {
          "name": "",
          "type": "uint256"
        }
      ],
      "payable": false,
      "stateMutability": "view",
      "type": "function"
    },
    {
      "constant": true,
      "inputs": [],
      "name": "EXPIRED",
      "outputs": [
        {
          "name": "",
          "type": "uint256"
        }
      ],
      "payable": false,
      "stateMutability": "view",
      "type": "function"
    },
    {
      "constant": true,
      "inputs": [],
      "name": "ACTIVE",
      "outputs": [
        {
          "name": "",
          "type": "uint256"
        }
      ],
      "payable": false,
      "stateMutability": "view",
      "type": "function"
    },
    {
      "constant": true,
      "inputs": [],
      "name": "TERMINATED",
      "outputs": [
        {
          "name": "",
          "type": "uint256"
        }
      ],
      "payable": false,
      "stateMutability": "view",
      "type": "function"
    }
  ],
  "bytecode": "0x608060405234801561001057600080fd5b50610153806100206000396000f300608060405260043610610062576000357c0100000000000000000000000000000000000000000000000000000000900463ffffffff1680630762f73114610067578063414ac85b14610092578063c90bd047146100bd578063dc04be85146100e8575b600080fd5b34801561007357600080fd5b5061007c610113565b6040518082815260200191505060405180910390f35b34801561009e57600080fd5b506100a7610118565b6040518082815260200191505060405180910390f35b3480156100c957600080fd5b506100d261011d565b6040518082815260200191505060405180910390f35b3480156100f457600080fd5b506100fd610122565b6040518082815260200191505060405180910390f35b600181565b600481565b600281565b6003815600a165627a7a723058207fec8abc536977dfcf093caa36774a42233625a40bd69e51fe2a7032bafeb8310029",
  "source": "pragma solidity ^0.4.0;\n\ncontract CommonStateNames {\n    uint public constant DRAFT = 1;\n    uint public constant ACTIVE = 2;\n    uint public constant TERMINATED = 3;\n    uint public constant EXPIRED = 4;\n}\n",
  "sourcePath": "/Users/julian/work-git/multisig-contracts/ethereum/contracts/CommonStateNames.sol",
  "compiler": {
    "name": "solc",
    "version": "0.4.24+commit.e67f0147.Emscripten.clang"
  },
  "schemaVersion": "2.0.1",
  "updatedAt": "2018-12-05T13:58:51.555Z"
}