{
  "contractName": "ComplexContract",
  "abi": [
    {
      "constant": true,
      "inputs": [],
      "name": "startupFee",
      "outputs": [
        {
          "name": "",
          "type": "uint256"
        }
      ],
      "payable": false,
      "stateMutability": "view",
      "type": "function"
    },
    {
      "constant": true,
      "inputs": [],
      "name": "owner",
      "outputs": [
        {
          "name": "",
          "type": "address"
        }
      ],
      "payable": false,
      "stateMutability": "view",
      "type": "function"
    },
    {
      "constant": true,
      "inputs": [],
      "name": "totalPrice",
      "outputs": [
        {
          "name": "",
          "type": "uint256"
        }
      ],
      "payable": false,
      "stateMutability": "view",
      "type": "function"
    },
    {
      "constant": true,
      "inputs": [],
      "name": "state",
      "outputs": [
        {
          "name": "",
          "type": "uint256"
        }
      ],
      "payable": false,
      "stateMutability": "view",
      "type": "function"
    },
    {
      "constant": true,
      "inputs": [],
      "name": "terms",
      "outputs": [
        {
          "name": "",
          "type": "bytes32"
        }
      ],
      "payable": false,
      "stateMutability": "view",
      "type": "function"
    },
    {
      "constant": true,
      "inputs": [],
      "name": "paymentsTo",
      "outputs": [
        {
          "name": "",
          "type": "address"
        }
      ],
      "payable": false,
      "stateMutability": "view",
      "type": "function"
    },
    {
      "inputs": [
        {
          "name": "_owner",
          "type": "address"
        },
        {
          "name": "_paymentsTo",
          "type": "address"
        }
      ],
      "payable": false,
      "stateMutability": "nonpayable",
      "type": "constructor"
    },
    {
      "constant": false,
      "inputs": [],
      "name": "goToNextState",
      "outputs": [],
      "payable": false,
      "stateMutability": "nonpayable",
      "type": "function"
    }
  ],
  "bytecode": "0x60806040526001805534801561001457600080fd5b50604051604080610656833981018060405281019080805190602001909291908051906020019092919050505081806000806101000a81548173ffffffffffffffffffffffffffffffffffffffff021916908373ffffffffffffffffffffffffffffffffffffffff1602179055505080600260006101000a81548173ffffffffffffffffffffffffffffffffffffffff021916908373ffffffffffffffffffffffffffffffffffffffff1602179055505050610581806100d56000396000f300608060405260043610610083576000357c0100000000000000000000000000000000000000000000000000000000900463ffffffff168063289120cf146100885780636974108c1461009f5780638da5cb5b146100ca578063ab0d92dd14610121578063c19d93fb1461014c578063d502562514610177578063dd59423b146101aa575b600080fd5b34801561009457600080fd5b5061009d610201565b005b3480156100ab57600080fd5b506100b46104ef565b6040518082815260200191505060405180910390f35b3480156100d657600080fd5b506100df6104f5565b604051808273ffffffffffffffffffffffffffffffffffffffff1673ffffffffffffffffffffffffffffffffffffffff16815260200191505060405180910390f35b34801561012d57600080fd5b5061013661051a565b6040518082815260200191505060405180910390f35b34801561015857600080fd5b50610161610520565b6040518082815260200191505060405180910390f35b34801561018357600080fd5b5061018c610526565b60405180826000191660001916815260200191505060405180910390f35b3480156101b657600080fd5b506101bf61052f565b604051808273ffffffffffffffffffffffffffffffffffffffff1673ffffffffffffffffffffffffffffffffffffffff16815260200191505060405180910390f35b60003373ffffffffffffffffffffffffffffffffffffffff166000809054906101000a900473ffffffffffffffffffffffffffffffffffffffff1673ffffffffffffffffffffffffffffffffffffffff161415156102c7576040517f08c379a00000000000000000000000000000000000000000000000000000000081526004018080602001828103825260188152602001807f6d73672e73656e64657220776173206e6f74206f776e6572000000000000000081525060200191505060405180910390fd5b6001805401905060028114156103db576107d0600260009054906101000a900473ffffffffffffffffffffffffffffffffffffffff1673ffffffffffffffffffffffffffffffffffffffff1631101515156103d6576040517f08c379a00000000000000000000000000000000000000000000000000000000081526004018080602001828103825260418152602001807f7061796d656e7473546f20646964206e6f7420686f6c642074686520616d6f7581526020017f6e74206f66207374617274757046656520746f20656e7465722073746174652081526020017f320000000000000000000000000000000000000000000000000000000000000081525060600191505060405180910390fd5b6104e5565b60038114156104e457617530600260009054906101000a900473ffffffffffffffffffffffffffffffffffffffff1673ffffffffffffffffffffffffffffffffffffffff1631101515156104e3576040517f08c379a00000000000000000000000000000000000000000000000000000000081526004018080602001828103825260418152602001807f7061796d656e7473546f20646964206e6f7420686f6c642074686520616d6f7581526020017f6e74206f6620746f74616c507269636520746f20656e7465722073746174652081526020017f330000000000000000000000000000000000000000000000000000000000000081525060600191505060405180910390fd5b5b5b8060018190555050565b6107d081565b6000809054906101000a900473ffffffffffffffffffffffffffffffffffffffff1681565b61753081565b60015481565b61011160010281565b600260009054906101000a900473ffffffffffffffffffffffffffffffffffffffff16815600a165627a7a723058207eeeeb07430700d90e9b60fad0fab0b65fa67cd65050d43326dcac76487442f40029",
  "source": "pragma solidity ^0.4.0;\n\nimport '../Owned.sol';\n\ncontract ComplexContract is Owned {\n\n    // states: 1 = draft\n    //         2 = active\n    //         3 = terminated\n    uint public state = 1; // defaults to draft\n\n    bytes32 public constant terms = 0x111;\n\n    uint public constant startupFee = 2000 wei;\n    uint public constant totalPrice = 30000 wei;\n\n    address public paymentsTo;\n\n    constructor(address _owner, address _paymentsTo) Owned(_owner) public {\n        paymentsTo = _paymentsTo;\n    }\n\n    function goToNextState() external ownerOnly {\n        uint nextState = state + 1;\n\n        if (nextState == 2) {\n            require(paymentsTo.balance >= startupFee, \"paymentsTo did not hold the amount of startupFee to enter state 2\");\n        }\n        else if (nextState == 3) {\n            require(paymentsTo.balance >= totalPrice, \"paymentsTo did not hold the amount of totalPrice to enter state 3\");\n        }\n\n        state = nextState;\n    }\n}\n",
  "sourcePath": "/Users/julian/work-git/multisig-contracts/ethereum/contracts/examples/ComplexContract.sol",
  "compiler": {
    "name": "solc",
    "version": "0.4.24+commit.e67f0147.Emscripten.clang"
  },
  "schemaVersion": "2.0.1",
  "updatedAt": "2018-12-06T08:03:07.590Z"
}