{
  "contractName": "ExternalDocPriced",
  "abi": [
    {
      "constant": true,
      "inputs": [],
      "name": "externalDocument",
      "outputs": [
        {
          "name": "",
          "type": "bytes32"
        }
      ],
      "payable": false,
      "stateMutability": "view",
      "type": "function"
    },
    {
      "constant": true,
      "inputs": [],
      "name": "DRAFT",
      "outputs": [
        {
          "name": "",
          "type": "uint256"
        }
      ],
      "payable": false,
      "stateMutability": "view",
      "type": "function"
    },
    {
      "constant": true,
      "inputs": [],
      "name": "paymentAddress",
      "outputs": [
        {
          "name": "",
          "type": "address"
        }
      ],
      "payable": false,
      "stateMutability": "view",
      "type": "function"
    },
    {
      "constant": true,
      "inputs": [],
      "name": "owner",
      "outputs": [
        {
          "name": "",
          "type": "address"
        }
      ],
      "payable": false,
      "stateMutability": "view",
      "type": "function"
    },
    {
      "constant": true,
      "inputs": [],
      "name": "totalPrice",
      "outputs": [
        {
          "name": "",
          "type": "uint256"
        }
      ],
      "payable": false,
      "stateMutability": "view",
      "type": "function"
    },
    {
      "constant": true,
      "inputs": [],
      "name": "state",
      "outputs": [
        {
          "name": "",
          "type": "uint256"
        }
      ],
      "payable": false,
      "stateMutability": "view",
      "type": "function"
    },
    {
      "constant": true,
      "inputs": [],
      "name": "ACTIVE",
      "outputs": [
        {
          "name": "",
          "type": "uint256"
        }
      ],
      "payable": false,
      "stateMutability": "view",
      "type": "function"
    },
    {
      "constant": true,
      "inputs": [],
      "name": "TERMINATED",
      "outputs": [
        {
          "name": "",
          "type": "uint256"
        }
      ],
      "payable": false,
      "stateMutability": "view",
      "type": "function"
    },
    {
      "inputs": [
        {
          "name": "_owner",
          "type": "address"
        },
        {
          "name": "_paymentAddress",
          "type": "address"
        }
      ],
      "payable": false,
      "stateMutability": "nonpayable",
      "type": "constructor"
    },
    {
      "constant": false,
      "inputs": [
        {
          "name": "_hash",
          "type": "bytes32"
        }
      ],
      "name": "setDoc",
      "outputs": [],
      "payable": false,
      "stateMutability": "nonpayable",
      "type": "function"
    },
    {
      "constant": false,
      "inputs": [],
      "name": "terminate",
      "outputs": [],
      "payable": false,
      "stateMutability": "nonpayable",
      "type": "function"
    },
    {
      "constant": true,
      "inputs": [],
      "name": "getState",
      "outputs": [
        {
          "name": "",
          "type": "uint256"
        }
      ],
      "payable": false,
      "stateMutability": "view",
      "type": "function"
    },
    {
      "constant": true,
      "inputs": [],
      "name": "countSubcontracts",
      "outputs": [
        {
          "name": "",
          "type": "uint256"
        }
      ],
      "payable": false,
      "stateMutability": "view",
      "type": "function"
    },
    {
      "constant": true,
      "inputs": [
        {
          "name": "_index",
          "type": "uint256"
        }
      ],
      "name": "getSubcontract",
      "outputs": [
        {
          "name": "",
          "type": "address"
        }
      ],
      "payable": false,
      "stateMutability": "view",
      "type": "function"
    }
  ],
  "bytecode": "0x608060405260026001556000600102600390600019169055678ac7230489e8000060045534801561002f57600080fd5b50604051604080610852833981018060405281019080805190602001909291908051906020019092919050505081806000806101000a81548173ffffffffffffffffffffffffffffffffffffffff021916908373ffffffffffffffffffffffffffffffffffffffff1602179055505080600260006101000a81548173ffffffffffffffffffffffffffffffffffffffff021916908373ffffffffffffffffffffffffffffffffffffffff1602179055505050610762806100f06000396000f3006080604052600436106100c5576000357c0100000000000000000000000000000000000000000000000000000000900463ffffffff16806306c5134c146100ca5780630762f731146100fd5780630c08bf88146101285780631865c57d1461013f5780632f97ef331461016a578063633423be1461019b5780638da5cb5b146101f25780639189a1cd14610249578063ab0d92dd14610274578063afe07dda1461029f578063c19d93fb1461030c578063c90bd04714610337578063dc04be8514610362575b600080fd5b3480156100d657600080fd5b506100df61038d565b60405180826000191660001916815260200191505060405180910390f35b34801561010957600080fd5b50610112610393565b6040518082815260200191505060405180910390f35b34801561013457600080fd5b5061013d610398565b005b34801561014b57600080fd5b506101546105e7565b6040518082815260200191505060405180910390f35b34801561017657600080fd5b5061019960048036038101908080356000191690602001909291905050506105f1565b005b3480156101a757600080fd5b506101b06106c3565b604051808273ffffffffffffffffffffffffffffffffffffffff1673ffffffffffffffffffffffffffffffffffffffff16815260200191505060405180910390f35b3480156101fe57600080fd5b506102076106e9565b604051808273ffffffffffffffffffffffffffffffffffffffff1673ffffffffffffffffffffffffffffffffffffffff16815260200191505060405180910390f35b34801561025557600080fd5b5061025e61070e565b6040518082815260200191505060405180910390f35b34801561028057600080fd5b50610289610716565b6040518082815260200191505060405180910390f35b3480156102ab57600080fd5b506102ca6004803603810190808035906020019092919050505061071c565b604051808273ffffffffffffffffffffffffffffffffffffffff1673ffffffffffffffffffffffffffffffffffffffff16815260200191505060405180910390f35b34801561031857600080fd5b50610321610726565b6040518082815260200191505060405180910390f35b34801561034357600080fd5b5061034c61072c565b6040518082815260200191505060405180910390f35b34801561036e57600080fd5b50610377610731565b6040518082815260200191505060405180910390f35b60035481565b600181565b3373ffffffffffffffffffffffffffffffffffffffff166000809054906101000a900473ffffffffffffffffffffffffffffffffffffffff1673ffffffffffffffffffffffffffffffffffffffff1614151561045c576040517f08c379a00000000000000000000000000000000000000000000000000000000081526004018080602001828103825260188152602001807f6d73672e73656e64657220776173206e6f74206f776e6572000000000000000081525060200191505060405180910390fd5b60006001026003546000191614151515610504576040517f08c379a00000000000000000000000000000000000000000000000000000000081526004018080602001828103825260218152602001807f546865726520776173206e6f7420736574206120646f63756d656e742068617381526020017f680000000000000000000000000000000000000000000000000000000000000081525060400191505060405180910390fd5b600454600260009054906101000a900473ffffffffffffffffffffffffffffffffffffffff1673ffffffffffffffffffffffffffffffffffffffff1631101515156105dd576040517f08c379a00000000000000000000000000000000000000000000000000000000081526004018080602001828103825260358152602001807f546865726520776173206c657373207468616e20746f74616c5072696365206f81526020017f6e20746865207061796d656e742061646472657373000000000000000000000081525060400191505060405180910390fd5b6003600181905550565b6000600154905090565b3373ffffffffffffffffffffffffffffffffffffffff166000809054906101000a900473ffffffffffffffffffffffffffffffffffffffff1673ffffffffffffffffffffffffffffffffffffffff161415156106b5576040517f08c379a00000000000000000000000000000000000000000000000000000000081526004018080602001828103825260188152602001807f6d73672e73656e64657220776173206e6f74206f776e6572000000000000000081525060200191505060405180910390fd5b806003816000191690555050565b600260009054906101000a900473ffffffffffffffffffffffffffffffffffffffff1681565b6000809054906101000a900473ffffffffffffffffffffffffffffffffffffffff1681565b600080905090565b60045481565b6000819050919050565b60015481565b600281565b6003815600a165627a7a723058207c22ecd10cf5caed6f1d897d17a54246ac78a25c62126d35e78a3b3caf0660780029",
  "source": "pragma solidity ^0.4.0;\n\nimport '../Owned.sol';\nimport \"../CommonStateNames.sol\";\nimport \"../ICommonState.sol\";\n\ncontract ExternalDocPriced is ICommonState, CommonStateNames, Owned {\n    uint public state = ACTIVE;\n\n    address public paymentAddress;\n    bytes32 public externalDocument = 0x0;\n    uint public totalPrice = 10 ether;\n\n    constructor(address _owner, address _paymentAddress) Owned(_owner) public {\n        paymentAddress = _paymentAddress;\n    }\n\n    function setDoc(bytes32 _hash) external ownerOnly {\n        externalDocument = _hash;\n    }\n\n    function terminate() external ownerOnly {\n        require(externalDocument != 0x0, \"There was not set a document hash\");\n        require(paymentAddress.balance >= totalPrice, \"There was less than totalPrice on the payment address\");\n        state = TERMINATED;\n    }\n\n    // implementation of ICommonState\n    function getState() external constant returns(uint) {\n        return state;\n    }\n    function countSubcontracts() external constant returns(uint) {\n        return 0;\n    }\n    function getSubcontract(uint _index) external constant returns(address) {\n        return address(_index);\n    }\n}\n",
  "sourcePath": "/Users/julian/work-git/multisig-contracts/ethereum/contracts/examples/ExternalDocPriced.sol",
  "compiler": {
    "name": "solc",
    "version": "0.4.24+commit.e67f0147.Emscripten.clang"
  },
  "schemaVersion": "2.0.1",
  "updatedAt": "2018-11-28T15:01:34.648Z"
}