{
  "contractName": "ExternalDocPriced",
  "abi": [
    {
      "constant": true,
      "inputs": [],
      "name": "externalDocument",
      "outputs": [
        {
          "name": "",
          "type": "bytes32"
        }
      ],
      "payable": false,
      "stateMutability": "view",
      "type": "function"
    },
    {
      "constant": true,
      "inputs": [],
      "name": "DRAFT",
      "outputs": [
        {
          "name": "",
          "type": "uint256"
        }
      ],
      "payable": false,
      "stateMutability": "view",
      "type": "function"
    },
    {
      "constant": true,
      "inputs": [],
      "name": "EXPIRED",
      "outputs": [
        {
          "name": "",
          "type": "uint256"
        }
      ],
      "payable": false,
      "stateMutability": "view",
      "type": "function"
    },
    {
      "constant": true,
      "inputs": [],
      "name": "paymentAddress",
      "outputs": [
        {
          "name": "",
          "type": "address"
        }
      ],
      "payable": false,
      "stateMutability": "view",
      "type": "function"
    },
    {
      "constant": true,
      "inputs": [],
      "name": "owner",
      "outputs": [
        {
          "name": "",
          "type": "address"
        }
      ],
      "payable": false,
      "stateMutability": "view",
      "type": "function"
    },
    {
      "constant": true,
      "inputs": [],
      "name": "totalPrice",
      "outputs": [
        {
          "name": "",
          "type": "uint256"
        }
      ],
      "payable": false,
      "stateMutability": "view",
      "type": "function"
    },
    {
      "constant": true,
      "inputs": [],
      "name": "state",
      "outputs": [
        {
          "name": "",
          "type": "uint256"
        }
      ],
      "payable": false,
      "stateMutability": "view",
      "type": "function"
    },
    {
      "constant": true,
      "inputs": [],
      "name": "ACTIVE",
      "outputs": [
        {
          "name": "",
          "type": "uint256"
        }
      ],
      "payable": false,
      "stateMutability": "view",
      "type": "function"
    },
    {
      "constant": true,
      "inputs": [],
      "name": "TERMINATED",
      "outputs": [
        {
          "name": "",
          "type": "uint256"
        }
      ],
      "payable": false,
      "stateMutability": "view",
      "type": "function"
    },
    {
      "inputs": [
        {
          "name": "_owner",
          "type": "address"
        },
        {
          "name": "_paymentAddress",
          "type": "address"
        }
      ],
      "payable": false,
      "stateMutability": "nonpayable",
      "type": "constructor"
    },
    {
      "constant": false,
      "inputs": [
        {
          "name": "_hash",
          "type": "bytes32"
        }
      ],
      "name": "setDoc",
      "outputs": [],
      "payable": false,
      "stateMutability": "nonpayable",
      "type": "function"
    },
    {
      "constant": false,
      "inputs": [],
      "name": "terminate",
      "outputs": [],
      "payable": false,
      "stateMutability": "nonpayable",
      "type": "function"
    },
    {
      "constant": true,
      "inputs": [],
      "name": "getState",
      "outputs": [
        {
          "name": "",
          "type": "uint256"
        }
      ],
      "payable": false,
      "stateMutability": "view",
      "type": "function"
    },
    {
      "constant": true,
      "inputs": [],
      "name": "countSubcontracts",
      "outputs": [
        {
          "name": "",
          "type": "uint256"
        }
      ],
      "payable": false,
      "stateMutability": "view",
      "type": "function"
    },
    {
      "constant": true,
      "inputs": [
        {
          "name": "_index",
          "type": "uint256"
        }
      ],
      "name": "getSubcontract",
      "outputs": [
        {
          "name": "",
          "type": "address"
        }
      ],
      "payable": false,
      "stateMutability": "view",
      "type": "function"
    }
  ],
  "bytecode": "0x608060405260026001556000600102600390600019169055678ac7230489e8000060045534801561002f57600080fd5b5060405160408061088d833981018060405281019080805190602001909291908051906020019092919050505081806000806101000a81548173ffffffffffffffffffffffffffffffffffffffff021916908373ffffffffffffffffffffffffffffffffffffffff1602179055505080600260006101000a81548173ffffffffffffffffffffffffffffffffffffffff021916908373ffffffffffffffffffffffffffffffffffffffff160217905550505061079d806100f06000396000f3006080604052600436106100d0576000357c0100000000000000000000000000000000000000000000000000000000900463ffffffff16806306c5134c146100d55780630762f731146101085780630c08bf88146101335780631865c57d1461014a5780632f97ef3314610175578063414ac85b146101a6578063633423be146101d15780638da5cb5b146102285780639189a1cd1461027f578063ab0d92dd146102aa578063afe07dda146102d5578063c19d93fb14610342578063c90bd0471461036d578063dc04be8514610398575b600080fd5b3480156100e157600080fd5b506100ea6103c3565b60405180826000191660001916815260200191505060405180910390f35b34801561011457600080fd5b5061011d6103c9565b6040518082815260200191505060405180910390f35b34801561013f57600080fd5b506101486103ce565b005b34801561015657600080fd5b5061015f61061d565b6040518082815260200191505060405180910390f35b34801561018157600080fd5b506101a46004803603810190808035600019169060200190929190505050610627565b005b3480156101b257600080fd5b506101bb6106f9565b6040518082815260200191505060405180910390f35b3480156101dd57600080fd5b506101e66106fe565b604051808273ffffffffffffffffffffffffffffffffffffffff1673ffffffffffffffffffffffffffffffffffffffff16815260200191505060405180910390f35b34801561023457600080fd5b5061023d610724565b604051808273ffffffffffffffffffffffffffffffffffffffff1673ffffffffffffffffffffffffffffffffffffffff16815260200191505060405180910390f35b34801561028b57600080fd5b50610294610749565b6040518082815260200191505060405180910390f35b3480156102b657600080fd5b506102bf610751565b6040518082815260200191505060405180910390f35b3480156102e157600080fd5b5061030060048036038101908080359060200190929190505050610757565b604051808273ffffffffffffffffffffffffffffffffffffffff1673ffffffffffffffffffffffffffffffffffffffff16815260200191505060405180910390f35b34801561034e57600080fd5b50610357610761565b6040518082815260200191505060405180910390f35b34801561037957600080fd5b50610382610767565b6040518082815260200191505060405180910390f35b3480156103a457600080fd5b506103ad61076c565b6040518082815260200191505060405180910390f35b60035481565b600181565b3373ffffffffffffffffffffffffffffffffffffffff166000809054906101000a900473ffffffffffffffffffffffffffffffffffffffff1673ffffffffffffffffffffffffffffffffffffffff16141515610492576040517f08c379a00000000000000000000000000000000000000000000000000000000081526004018080602001828103825260188152602001807f6d73672e73656e64657220776173206e6f74206f776e6572000000000000000081525060200191505060405180910390fd5b6000600102600354600019161415151561053a576040517f08c379a00000000000000000000000000000000000000000000000000000000081526004018080602001828103825260218152602001807f546865726520776173206e6f7420736574206120646f63756d656e742068617381526020017f680000000000000000000000000000000000000000000000000000000000000081525060400191505060405180910390fd5b600454600260009054906101000a900473ffffffffffffffffffffffffffffffffffffffff1673ffffffffffffffffffffffffffffffffffffffff163110151515610613576040517f08c379a00000000000000000000000000000000000000000000000000000000081526004018080602001828103825260358152602001807f546865726520776173206c657373207468616e20746f74616c5072696365206f81526020017f6e20746865207061796d656e742061646472657373000000000000000000000081525060400191505060405180910390fd5b6003600181905550565b6000600154905090565b3373ffffffffffffffffffffffffffffffffffffffff166000809054906101000a900473ffffffffffffffffffffffffffffffffffffffff1673ffffffffffffffffffffffffffffffffffffffff161415156106eb576040517f08c379a00000000000000000000000000000000000000000000000000000000081526004018080602001828103825260188152602001807f6d73672e73656e64657220776173206e6f74206f776e6572000000000000000081525060200191505060405180910390fd5b806003816000191690555050565b600481565b600260009054906101000a900473ffffffffffffffffffffffffffffffffffffffff1681565b6000809054906101000a900473ffffffffffffffffffffffffffffffffffffffff1681565b600080905090565b60045481565b6000819050919050565b60015481565b600281565b6003815600a165627a7a72305820a2b1eec75802fca1f40098df16e6e2f99a6ecd5472e727113c344aefdc8949750029",
  "source": "pragma solidity ^0.4.0;\n\nimport '../Owned.sol';\nimport \"../CommonStateNames.sol\";\nimport \"../ICommonState.sol\";\n\ncontract ExternalDocPriced is ICommonState, CommonStateNames, Owned {\n    uint public state = ACTIVE;\n\n    address public paymentAddress;\n    bytes32 public externalDocument = 0x0;\n    uint public totalPrice = 10 ether;\n\n    constructor(address _owner, address _paymentAddress) Owned(_owner) public {\n        paymentAddress = _paymentAddress;\n    }\n\n    function setDoc(bytes32 _hash) external ownerOnly {\n        externalDocument = _hash;\n    }\n\n    function terminate() external ownerOnly {\n        require(externalDocument != 0x0, \"There was not set a document hash\");\n        require(paymentAddress.balance >= totalPrice, \"There was less than totalPrice on the payment address\");\n        state = TERMINATED;\n    }\n\n    // implementation of ICommonState\n    function getState() external constant returns(uint) {\n        return state;\n    }\n    function countSubcontracts() external constant returns(uint) {\n        return 0;\n    }\n    function getSubcontract(uint _index) external constant returns(address) {\n        return address(_index);\n    }\n}\n",
  "sourcePath": "/Users/julian/work-git/multisig-contracts/ethereum/contracts/examples/ExternalDocPriced.sol",
  "compiler": {
    "name": "solc",
    "version": "0.4.24+commit.e67f0147.Emscripten.clang"
  },
  "schemaVersion": "2.0.1",
  "updatedAt": "2018-12-05T13:58:51.568Z"
}