{
  "contractName": "ExternalDocPriced",
  "abi": [
    {
      "constant": true,
      "inputs": [],
      "name": "externalDocument",
      "outputs": [
        {
          "name": "",
          "type": "bytes32"
        }
      ],
      "payable": false,
      "stateMutability": "view",
      "type": "function"
    },
    {
      "constant": true,
      "inputs": [],
      "name": "DRAFT",
      "outputs": [
        {
          "name": "",
          "type": "uint256"
        }
      ],
      "payable": false,
      "stateMutability": "view",
      "type": "function"
    },
    {
      "constant": true,
      "inputs": [],
      "name": "EXPIRED",
      "outputs": [
        {
          "name": "",
          "type": "uint256"
        }
      ],
      "payable": false,
      "stateMutability": "view",
      "type": "function"
    },
    {
      "constant": true,
      "inputs": [],
      "name": "paymentAddress",
      "outputs": [
        {
          "name": "",
          "type": "address"
        }
      ],
      "payable": false,
      "stateMutability": "view",
      "type": "function"
    },
    {
      "constant": true,
      "inputs": [],
      "name": "owner",
      "outputs": [
        {
          "name": "",
          "type": "address"
        }
      ],
      "payable": false,
      "stateMutability": "view",
      "type": "function"
    },
    {
      "constant": true,
      "inputs": [],
      "name": "totalPrice",
      "outputs": [
        {
          "name": "",
          "type": "uint256"
        }
      ],
      "payable": false,
      "stateMutability": "view",
      "type": "function"
    },
    {
      "constant": true,
      "inputs": [],
      "name": "state",
      "outputs": [
        {
          "name": "",
          "type": "uint256"
        }
      ],
      "payable": false,
      "stateMutability": "view",
      "type": "function"
    },
    {
      "constant": true,
      "inputs": [],
      "name": "ACTIVE",
      "outputs": [
        {
          "name": "",
          "type": "uint256"
        }
      ],
      "payable": false,
      "stateMutability": "view",
      "type": "function"
    },
    {
      "constant": true,
      "inputs": [],
      "name": "TERMINATED",
      "outputs": [
        {
          "name": "",
          "type": "uint256"
        }
      ],
      "payable": false,
      "stateMutability": "view",
      "type": "function"
    },
    {
      "constant": true,
      "inputs": [],
      "name": "PAUSE",
      "outputs": [
        {
          "name": "",
          "type": "uint256"
        }
      ],
      "payable": false,
      "stateMutability": "view",
      "type": "function"
    },
    {
      "inputs": [
        {
          "name": "_owner",
          "type": "address"
        },
        {
          "name": "_paymentAddress",
          "type": "address"
        }
      ],
      "payable": false,
      "stateMutability": "nonpayable",
      "type": "constructor"
    },
    {
      "constant": false,
      "inputs": [
        {
          "name": "_hash",
          "type": "bytes32"
        }
      ],
      "name": "setDoc",
      "outputs": [],
      "payable": false,
      "stateMutability": "nonpayable",
      "type": "function"
    },
    {
      "constant": false,
      "inputs": [],
      "name": "terminate",
      "outputs": [],
      "payable": false,
      "stateMutability": "nonpayable",
      "type": "function"
    },
    {
      "constant": true,
      "inputs": [],
      "name": "getState",
      "outputs": [
        {
          "name": "",
          "type": "uint256"
        }
      ],
      "payable": false,
      "stateMutability": "view",
      "type": "function"
    },
    {
      "constant": true,
      "inputs": [],
      "name": "countSubcontracts",
      "outputs": [
        {
          "name": "",
          "type": "uint256"
        }
      ],
      "payable": false,
      "stateMutability": "view",
      "type": "function"
    },
    {
      "constant": true,
      "inputs": [
        {
          "name": "_index",
          "type": "uint256"
        }
      ],
      "name": "getSubcontract",
      "outputs": [
        {
          "name": "",
          "type": "address"
        }
      ],
      "payable": false,
      "stateMutability": "view",
      "type": "function"
    }
  ],
  "bytecode": "0x608060405260026001556000600102600390600019169055678ac7230489e8000060045534801561002f57600080fd5b506040516040806108c8833981018060405281019080805190602001909291908051906020019092919050505081806000806101000a81548173ffffffffffffffffffffffffffffffffffffffff021916908373ffffffffffffffffffffffffffffffffffffffff1602179055505080600260006101000a81548173ffffffffffffffffffffffffffffffffffffffff021916908373ffffffffffffffffffffffffffffffffffffffff16021790555050506107d8806100f06000396000f3006080604052600436106100db576000357c0100000000000000000000000000000000000000000000000000000000900463ffffffff16806306c5134c146100e05780630762f731146101135780630c08bf881461013e5780631865c57d146101555780632f97ef3314610180578063414ac85b146101b1578063633423be146101dc5780638da5cb5b146102335780639189a1cd1461028a578063ab0d92dd146102b5578063afe07dda146102e0578063c19d93fb1461034d578063c90bd04714610378578063dc04be85146103a3578063e65fad97146103ce575b600080fd5b3480156100ec57600080fd5b506100f56103f9565b60405180826000191660001916815260200191505060405180910390f35b34801561011f57600080fd5b506101286103ff565b6040518082815260200191505060405180910390f35b34801561014a57600080fd5b50610153610404565b005b34801561016157600080fd5b5061016a610653565b6040518082815260200191505060405180910390f35b34801561018c57600080fd5b506101af600480360381019080803560001916906020019092919050505061065d565b005b3480156101bd57600080fd5b506101c661072f565b6040518082815260200191505060405180910390f35b3480156101e857600080fd5b506101f1610734565b604051808273ffffffffffffffffffffffffffffffffffffffff1673ffffffffffffffffffffffffffffffffffffffff16815260200191505060405180910390f35b34801561023f57600080fd5b5061024861075a565b604051808273ffffffffffffffffffffffffffffffffffffffff1673ffffffffffffffffffffffffffffffffffffffff16815260200191505060405180910390f35b34801561029657600080fd5b5061029f61077f565b6040518082815260200191505060405180910390f35b3480156102c157600080fd5b506102ca610787565b6040518082815260200191505060405180910390f35b3480156102ec57600080fd5b5061030b6004803603810190808035906020019092919050505061078d565b604051808273ffffffffffffffffffffffffffffffffffffffff1673ffffffffffffffffffffffffffffffffffffffff16815260200191505060405180910390f35b34801561035957600080fd5b50610362610797565b6040518082815260200191505060405180910390f35b34801561038457600080fd5b5061038d61079d565b6040518082815260200191505060405180910390f35b3480156103af57600080fd5b506103b86107a2565b6040518082815260200191505060405180910390f35b3480156103da57600080fd5b506103e36107a7565b6040518082815260200191505060405180910390f35b60035481565b600181565b3373ffffffffffffffffffffffffffffffffffffffff166000809054906101000a900473ffffffffffffffffffffffffffffffffffffffff1673ffffffffffffffffffffffffffffffffffffffff161415156104c8576040517f08c379a00000000000000000000000000000000000000000000000000000000081526004018080602001828103825260188152602001807f6d73672e73656e64657220776173206e6f74206f776e6572000000000000000081525060200191505060405180910390fd5b60006001026003546000191614151515610570576040517f08c379a00000000000000000000000000000000000000000000000000000000081526004018080602001828103825260218152602001807f546865726520776173206e6f7420736574206120646f63756d656e742068617381526020017f680000000000000000000000000000000000000000000000000000000000000081525060400191505060405180910390fd5b600454600260009054906101000a900473ffffffffffffffffffffffffffffffffffffffff1673ffffffffffffffffffffffffffffffffffffffff163110151515610649576040517f08c379a00000000000000000000000000000000000000000000000000000000081526004018080602001828103825260358152602001807f546865726520776173206c657373207468616e20746f74616c5072696365206f81526020017f6e20746865207061796d656e742061646472657373000000000000000000000081525060400191505060405180910390fd5b6003600181905550565b6000600154905090565b3373ffffffffffffffffffffffffffffffffffffffff166000809054906101000a900473ffffffffffffffffffffffffffffffffffffffff1673ffffffffffffffffffffffffffffffffffffffff16141515610721576040517f08c379a00000000000000000000000000000000000000000000000000000000081526004018080602001828103825260188152602001807f6d73672e73656e64657220776173206e6f74206f776e6572000000000000000081525060200191505060405180910390fd5b806003816000191690555050565b600481565b600260009054906101000a900473ffffffffffffffffffffffffffffffffffffffff1681565b6000809054906101000a900473ffffffffffffffffffffffffffffffffffffffff1681565b600080905090565b60045481565b6000819050919050565b60015481565b600281565b600381565b6005815600a165627a7a7230582081c33bf6490edf7d8fa415f45486c84af447e3f168254136b853ff31c1b3e4220029",
  "source": "pragma solidity ^0.4.0;\n\nimport '../Owned.sol';\nimport \"../CommonStateNames.sol\";\nimport \"../ICommonState.sol\";\n\ncontract ExternalDocPriced is ICommonState, CommonStateNames, Owned {\n    uint public state = ACTIVE;\n\n    address public paymentAddress;\n    bytes32 public externalDocument = 0x0;\n    uint public totalPrice = 10 ether;\n\n    constructor(address _owner, address _paymentAddress) Owned(_owner) public {\n        paymentAddress = _paymentAddress;\n    }\n\n    function setDoc(bytes32 _hash) external ownerOnly {\n        externalDocument = _hash;\n    }\n\n    function terminate() external ownerOnly {\n        require(externalDocument != 0x0, \"There was not set a document hash\");\n        require(paymentAddress.balance >= totalPrice, \"There was less than totalPrice on the payment address\");\n        state = TERMINATED;\n    }\n\n    // implementation of ICommonState\n    function getState() external constant returns(uint) {\n        return state;\n    }\n    function countSubcontracts() external constant returns(uint) {\n        return 0;\n    }\n    function getSubcontract(uint _index) external constant returns(address) {\n        return address(_index);\n    }\n}\n",
  "sourcePath": "/Users/julian/work-git/multisig-contracts/ethereum/contracts/examples/ExternalDocPriced.sol",
  "compiler": {
    "name": "solc",
    "version": "0.4.24+commit.e67f0147.Emscripten.clang"
  },
  "schemaVersion": "2.0.1",
  "updatedAt": "2018-12-06T07:33:53.899Z"
}