{
  "contractName": "HasSubcontracts",
  "abi": [
    {
      "constant": true,
      "inputs": [],
      "name": "initiator",
      "outputs": [
        {
          "name": "",
          "type": "address"
        }
      ],
      "payable": false,
      "stateMutability": "view",
      "type": "function"
    },
    {
      "constant": true,
      "inputs": [],
      "name": "serviceProvider",
      "outputs": [
        {
          "name": "",
          "type": "address"
        }
      ],
      "payable": false,
      "stateMutability": "view",
      "type": "function"
    },
    {
      "constant": true,
      "inputs": [],
      "name": "owner",
      "outputs": [
        {
          "name": "",
          "type": "address"
        }
      ],
      "payable": false,
      "stateMutability": "view",
      "type": "function"
    },
    {
      "constant": true,
      "inputs": [],
      "name": "state",
      "outputs": [
        {
          "name": "",
          "type": "uint256"
        }
      ],
      "payable": false,
      "stateMutability": "view",
      "type": "function"
    },
    {
      "constant": true,
      "inputs": [],
      "name": "terms",
      "outputs": [
        {
          "name": "",
          "type": "bytes32"
        }
      ],
      "payable": false,
      "stateMutability": "view",
      "type": "function"
    },
    {
      "constant": true,
      "inputs": [],
      "name": "paymentsTo",
      "outputs": [
        {
          "name": "",
          "type": "address"
        }
      ],
      "payable": false,
      "stateMutability": "view",
      "type": "function"
    },
    {
      "inputs": [
        {
          "name": "_owner",
          "type": "address"
        },
        {
          "name": "_paymentsTo",
          "type": "address"
        },
        {
          "name": "_serviceProvider",
          "type": "address"
        }
      ],
      "payable": false,
      "stateMutability": "nonpayable",
      "type": "constructor"
    },
    {
      "constant": false,
      "inputs": [
        {
          "name": "_add",
          "type": "address"
        }
      ],
      "name": "add",
      "outputs": [],
      "payable": false,
      "stateMutability": "nonpayable",
      "type": "function"
    },
    {
      "constant": false,
      "inputs": [],
      "name": "goToNextState",
      "outputs": [],
      "payable": false,
      "stateMutability": "nonpayable",
      "type": "function"
    },
    {
      "constant": true,
      "inputs": [
        {
          "name": "_state",
          "type": "uint256"
        }
      ],
      "name": "countState",
      "outputs": [
        {
          "name": "",
          "type": "uint256"
        }
      ],
      "payable": false,
      "stateMutability": "view",
      "type": "function"
    },
    {
      "constant": true,
      "inputs": [],
      "name": "getState",
      "outputs": [
        {
          "name": "",
          "type": "uint256"
        }
      ],
      "payable": false,
      "stateMutability": "view",
      "type": "function"
    },
    {
      "constant": true,
      "inputs": [],
      "name": "countSubcontracts",
      "outputs": [
        {
          "name": "",
          "type": "uint256"
        }
      ],
      "payable": false,
      "stateMutability": "view",
      "type": "function"
    },
    {
      "constant": true,
      "inputs": [
        {
          "name": "_index",
          "type": "uint256"
        }
      ],
      "name": "getSubcontract",
      "outputs": [
        {
          "name": "",
          "type": "address"
        }
      ],
      "payable": false,
      "stateMutability": "view",
      "type": "function"
    }
  ],
  "bytecode": "0x60806040526001805534801561001457600080fd5b506040516060806109bc83398101806040528101908080519060200190929190805190602001909291908051906020019092919050505082806000806101000a81548173ffffffffffffffffffffffffffffffffffffffff021916908373ffffffffffffffffffffffffffffffffffffffff1602179055505081600260006101000a81548173ffffffffffffffffffffffffffffffffffffffff021916908373ffffffffffffffffffffffffffffffffffffffff16021790555080600460006101000a81548173ffffffffffffffffffffffffffffffffffffffff021916908373ffffffffffffffffffffffffffffffffffffffff16021790555033600360006101000a81548173ffffffffffffffffffffffffffffffffffffffff021916908373ffffffffffffffffffffffffffffffffffffffff16021790555050505061085a806101626000396000f3006080604052600436106100ba576000357c0100000000000000000000000000000000000000000000000000000000900463ffffffff1680630a3b0a4f146100bf5780631865c57d14610102578063289120cf1461012d5780635c39fcc1146101445780638d69e95e1461019b5780638da5cb5b146101f25780639189a1cd14610249578063a6ebe25214610274578063afe07dda146102b5578063c19d93fb14610322578063d50256251461034d578063dd59423b14610380575b600080fd5b3480156100cb57600080fd5b50610100600480360381019080803573ffffffffffffffffffffffffffffffffffffffff1690602001909291905050506103d7565b005b34801561010e57600080fd5b506101176104e0565b6040518082815260200191505060405180910390f35b34801561013957600080fd5b506101426104ea565b005b34801561015057600080fd5b50610159610672565b604051808273ffffffffffffffffffffffffffffffffffffffff1673ffffffffffffffffffffffffffffffffffffffff16815260200191505060405180910390f35b3480156101a757600080fd5b506101b0610698565b604051808273ffffffffffffffffffffffffffffffffffffffff1673ffffffffffffffffffffffffffffffffffffffff16815260200191505060405180910390f35b3480156101fe57600080fd5b506102076106be565b604051808273ffffffffffffffffffffffffffffffffffffffff1673ffffffffffffffffffffffffffffffffffffffff16815260200191505060405180910390f35b34801561025557600080fd5b5061025e6106e3565b6040518082815260200191505060405180910390f35b34801561028057600080fd5b5061029f600480360381019080803590602001909291905050506106ec565b6040518082815260200191505060405180910390f35b3480156102c157600080fd5b506102e0600480360381019080803590602001909291905050506107cd565b604051808273ffffffffffffffffffffffffffffffffffffffff1673ffffffffffffffffffffffffffffffffffffffff16815260200191505060405180910390f35b34801561032e57600080fd5b506103376107f9565b6040518082815260200191505060405180910390f35b34801561035957600080fd5b506103626107ff565b60405180826000191660001916815260200191505060405180910390f35b34801561038c57600080fd5b50610395610808565b604051808273ffffffffffffffffffffffffffffffffffffffff1673ffffffffffffffffffffffffffffffffffffffff16815260200191505060405180910390f35b600360009054906101000a900473ffffffffffffffffffffffffffffffffffffffff1673ffffffffffffffffffffffffffffffffffffffff163373ffffffffffffffffffffffffffffffffffffffff1614151561049c576040517f08c379a00000000000000000000000000000000000000000000000000000000081526004018080602001828103825260188152602001807f53656e64657220776173206e6f7420696e69746961746f72000000000000000081525060200191505060405180910390fd5b80600560006101000a81548173ffffffffffffffffffffffffffffffffffffffff021916908373ffffffffffffffffffffffffffffffffffffffff16021790555050565b6000600154905090565b60003373ffffffffffffffffffffffffffffffffffffffff166000809054906101000a900473ffffffffffffffffffffffffffffffffffffffff1673ffffffffffffffffffffffffffffffffffffffff161415156105b0576040517f08c379a00000000000000000000000000000000000000000000000000000000081526004018080602001828103825260188152602001807f6d73672e73656e64657220776173206e6f74206f776e6572000000000000000081525060200191505060405180910390fd5b6001805401905060038114156106685760016105cc60036106ec565b141515610667576040517f08c379a00000000000000000000000000000000000000000000000000000000081526004018080602001828103825260228152602001807f416c6c20737562636f6e747261637420776173206e6f74207465726d696e617481526020017f656400000000000000000000000000000000000000000000000000000000000081525060400191505060405180910390fd5b5b8060018190555050565b600360009054906101000a900473ffffffffffffffffffffffffffffffffffffffff1681565b600460009054906101000a900473ffffffffffffffffffffffffffffffffffffffff1681565b6000809054906101000a900473ffffffffffffffffffffffffffffffffffffffff1681565b60006001905090565b6000806000905082600560009054906101000a900473ffffffffffffffffffffffffffffffffffffffff1673ffffffffffffffffffffffffffffffffffffffff16631865c57d6040518163ffffffff167c0100000000000000000000000000000000000000000000000000000000028152600401602060405180830381600087803b15801561077a57600080fd5b505af115801561078e573d6000803e3d6000fd5b505050506040513d60208110156107a457600080fd5b810190808051906020019092919050505014156107c45780806001019150505b80915050919050565b6000600560009054906101000a900473ffffffffffffffffffffffffffffffffffffffff169050919050565b60015481565b61011160010281565b600260009054906101000a900473ffffffffffffffffffffffffffffffffffffffff16815600a165627a7a7230582085e40b18e9875b3ef4bfa2e60629ee8160e36b95b211f22da8878cbc4083715d0029",
  "source": "pragma solidity ^0.4.0;\n\nimport '../Owned.sol';\nimport \"../ICommonState.sol\";\n\ncontract HasSubcontracts is ICommonState, Owned {\n\n    // states: 1 = draft\n    //         2 = active\n    //         3 = terminated\n    uint public state = 1; // defaults to draft\n\n    bytes32 public constant terms = 0x111;\n\n    address public paymentsTo;\n    address public initiator;\n    address public serviceProvider;\n\n    ICommonState subcontract;\n\n    constructor(address _owner, address _paymentsTo, address _serviceProvider)\n    Owned(_owner) public {\n        paymentsTo = _paymentsTo;\n        serviceProvider = _serviceProvider;\n        initiator = msg.sender; // note we've assumed this is msg.sender!\n    }\n\n    function add(ICommonState _add) external {\n        require(msg.sender == initiator, \"Sender was not initiator\");\n        subcontract = _add;\n    }\n\n    function goToNextState() external ownerOnly {\n        uint nextState = state + 1;\n        if (nextState == 3) {\n            require(countState(3) == 1, \"All subcontract was not terminated\");\n        }\n        state = nextState;\n    }\n\n    function countState(uint _state) public constant returns(uint) {\n        uint count = 0;\n        if (subcontract.getState() == _state) {\n            count++;\n        }\n        return count;\n    }\n\n    // implementation of ICommonState\n    function getState() external constant returns(uint) {\n        return state;\n    }\n    function countSubcontracts() external constant returns(uint) {\n        return 1;\n    }\n    function getSubcontract(uint _index) external constant returns(address) {\n        return subcontract;\n    }\n}\n",
  "sourcePath": "/Users/julian/work-git/multisig-contracts/ethereum/contracts/examples/HasSubcontracts.sol",
  "compiler": {
    "name": "solc",
    "version": "0.4.24+commit.e67f0147.Emscripten.clang"
  },
  "schemaVersion": "2.0.1",
  "updatedAt": "2018-12-06T08:03:07.592Z"
}