{
  "contractName": "K1",
  "abi": [
    {
      "constant": true,
      "inputs": [],
      "name": "DRAFT",
      "outputs": [
        {
          "name": "",
          "type": "uint256"
        }
      ],
      "payable": false,
      "stateMutability": "view",
      "type": "function"
    },
    {
      "constant": true,
      "inputs": [
        {
          "name": "",
          "type": "uint256"
        }
      ],
      "name": "status",
      "outputs": [
        {
          "name": "",
          "type": "bytes32"
        }
      ],
      "payable": false,
      "stateMutability": "view",
      "type": "function"
    },
    {
      "constant": true,
      "inputs": [
        {
          "name": "",
          "type": "uint256"
        }
      ],
      "name": "payments",
      "outputs": [
        {
          "name": "",
          "type": "uint256"
        }
      ],
      "payable": false,
      "stateMutability": "view",
      "type": "function"
    },
    {
      "constant": true,
      "inputs": [],
      "name": "serviceProvider",
      "outputs": [
        {
          "name": "",
          "type": "address"
        }
      ],
      "payable": false,
      "stateMutability": "view",
      "type": "function"
    },
    {
      "constant": true,
      "inputs": [],
      "name": "owner",
      "outputs": [
        {
          "name": "",
          "type": "address"
        }
      ],
      "payable": false,
      "stateMutability": "view",
      "type": "function"
    },
    {
      "constant": true,
      "inputs": [],
      "name": "state",
      "outputs": [
        {
          "name": "",
          "type": "uint256"
        }
      ],
      "payable": false,
      "stateMutability": "view",
      "type": "function"
    },
    {
      "constant": true,
      "inputs": [],
      "name": "ACTIVE",
      "outputs": [
        {
          "name": "",
          "type": "uint256"
        }
      ],
      "payable": false,
      "stateMutability": "view",
      "type": "function"
    },
    {
      "constant": true,
      "inputs": [],
      "name": "TERMINATED",
      "outputs": [
        {
          "name": "",
          "type": "uint256"
        }
      ],
      "payable": false,
      "stateMutability": "view",
      "type": "function"
    },
    {
      "inputs": [
        {
          "name": "_owner",
          "type": "address"
        },
        {
          "name": "_serviceProvider",
          "type": "address"
        }
      ],
      "payable": false,
      "stateMutability": "nonpayable",
      "type": "constructor"
    },
    {
      "payable": true,
      "stateMutability": "payable",
      "type": "fallback"
    },
    {
      "constant": false,
      "inputs": [],
      "name": "activate",
      "outputs": [],
      "payable": false,
      "stateMutability": "nonpayable",
      "type": "function"
    },
    {
      "constant": false,
      "inputs": [
        {
          "name": "_month",
          "type": "uint256"
        }
      ],
      "name": "step",
      "outputs": [],
      "payable": false,
      "stateMutability": "nonpayable",
      "type": "function"
    },
    {
      "constant": false,
      "inputs": [
        {
          "name": "month",
          "type": "uint256"
        },
        {
          "name": "_status",
          "type": "bytes32"
        }
      ],
      "name": "setStatus",
      "outputs": [],
      "payable": false,
      "stateMutability": "nonpayable",
      "type": "function"
    },
    {
      "constant": true,
      "inputs": [],
      "name": "getState",
      "outputs": [
        {
          "name": "",
          "type": "uint256"
        }
      ],
      "payable": false,
      "stateMutability": "view",
      "type": "function"
    },
    {
      "constant": true,
      "inputs": [],
      "name": "countSubcontracts",
      "outputs": [
        {
          "name": "",
          "type": "uint256"
        }
      ],
      "payable": false,
      "stateMutability": "view",
      "type": "function"
    }
  ],
  "bytecode": "0x6080604052600180553480156200001557600080fd5b5060405160408062000d1e833981018060405281019080805190602001909291908051906020019092919050505081806000806101000a81548173ffffffffffffffffffffffffffffffffffffffff021916908373ffffffffffffffffffffffffffffffffffffffff1602179055505080600360006101000a81548173ffffffffffffffffffffffffffffffffffffffff021916908373ffffffffffffffffffffffffffffffffffffffff160217905550600c604051908082528060200260200182016040528015620000f75781602001602082028038833980820191505090505b50600290805190602001906200010f92919062000335565b5066d529ae9e860000600260008154811015156200012957fe5b906000526020600020018190555066d529ae9e860000600260018154811015156200015057fe5b906000526020600020018190555066d529ae9e8600006002808154811015156200017657fe5b906000526020600020018190555066d529ae9e860000600260038154811015156200019d57fe5b906000526020600020018190555066d529ae9e86000060026004815481101515620001c457fe5b906000526020600020018190555066d529ae9e86000060026005815481101515620001eb57fe5b906000526020600020018190555066d529ae9e860000600260068154811015156200021257fe5b906000526020600020018190555066d529ae9e860000600260078154811015156200023957fe5b906000526020600020018190555066d529ae9e860000600260088154811015156200026057fe5b906000526020600020018190555066d529ae9e860000600260098154811015156200028757fe5b906000526020600020018190555066d529ae9e8600006002600a815481101515620002ae57fe5b906000526020600020018190555066d529ae9e8600006002600b815481101515620002d557fe5b9060005260206000200181905550600c604051908082528060200260200182016040528015620003145781602001602082028038833980820191505090505b50600490805190602001906200032c92919062000387565b5050506200042f565b82805482825590600052602060002090810192821562000374579160200282015b828111156200037357825182559160200191906001019062000356565b5b509050620003839190620003df565b5090565b828054828255906000526020600020908101928215620003cc579160200282015b82811115620003cb578251829060001916905591602001919060010190620003a8565b5b509050620003db919062000407565b5090565b6200040491905b8082111562000400576000816000905550600101620003e6565b5090565b90565b6200042c91905b80821115620004285760008160009055506001016200040e565b5090565b90565b6108df806200043f6000396000f3006080604052600436106100c5576000357c0100000000000000000000000000000000000000000000000000000000900463ffffffff1680630762f731146100c75780630f15f4c0146100f25780631865c57d146101095780633a1cde751461013457806342d21ef7146101615780637aa4a54b146101aa57806387d81789146101e55780638d69e95e146102265780638da5cb5b1461027d5780639189a1cd146102d4578063c19d93fb146102ff578063c90bd0471461032a578063dc04be8514610355575b005b3480156100d357600080fd5b506100dc610380565b6040518082815260200191505060405180910390f35b3480156100fe57600080fd5b50610107610385565b005b34801561011557600080fd5b5061011e6104cc565b6040518082815260200191505060405180910390f35b34801561014057600080fd5b5061015f600480360381019080803590602001909291905050506104d6565b005b34801561016d57600080fd5b5061018c600480360381019080803590602001909291905050506107e4565b60405180826000191660001916815260200191505060405180910390f35b3480156101b657600080fd5b506101e3600480360381019080803590602001909291908035600019169060200190929190505050610807565b005b3480156101f157600080fd5b506102106004803603810190808035906020019092919050505061082d565b6040518082815260200191505060405180910390f35b34801561023257600080fd5b5061023b610850565b604051808273ffffffffffffffffffffffffffffffffffffffff1673ffffffffffffffffffffffffffffffffffffffff16815260200191505060405180910390f35b34801561028957600080fd5b50610292610876565b604051808273ffffffffffffffffffffffffffffffffffffffff1673ffffffffffffffffffffffffffffffffffffffff16815260200191505060405180910390f35b3480156102e057600080fd5b506102e961089b565b6040518082815260200191505060405180910390f35b34801561030b57600080fd5b506103146108a3565b6040518082815260200191505060405180910390f35b34801561033657600080fd5b5061033f6108a9565b6040518082815260200191505060405180910390f35b34801561036157600080fd5b5061036a6108ae565b6040518082815260200191505060405180910390f35b600181565b3373ffffffffffffffffffffffffffffffffffffffff166000809054906101000a900473ffffffffffffffffffffffffffffffffffffffff1673ffffffffffffffffffffffffffffffffffffffff16141515610449576040517f08c379a00000000000000000000000000000000000000000000000000000000081526004018080602001828103825260188152602001807f6d73672e73656e64657220776173206e6f74206f776e6572000000000000000081525060200191505060405180910390fd5b600180541415156104c2576040517f08c379a000000000000000000000000000000000000000000000000000000000815260040180806020018281038252601b8152602001807f63757272656e7420737461746520776173206e6f74204452414654000000000081525060200191505060405180910390fd5b6002600181905550565b6000600154905090565b60008060006002600154141515610555576040517f08c379a000000000000000000000000000000000000000000000000000000000815260040180806020018281038252601c8152602001807f63757272656e7420737461746520776173206e6f74204143544956450000000081525060200191505060405180910390fd5b60028481548110151561056457fe5b906000526020600020015492506000831115156105e9576040517f08c379a000000000000000000000000000000000000000000000000000000000815260040180806020018281038252601b8152602001807f4e6f7468696e6720746f20646f2c20616d6f756e74207761732030000000000081525060200191505060405180910390fd5b3073ffffffffffffffffffffffffffffffffffffffff1631831115151561069e576040517f08c379a00000000000000000000000000000000000000000000000000000000081526004018080602001828103825260238152602001807f54686520636f6e747261637420697473656c66206973206f7574206f66206d6f81526020017f6e6579000000000000000000000000000000000000000000000000000000000081525060400191505060405180910390fd5b6003600185018115156106ad57fe5b0691506000821415610756576004848154811015156106c857fe5b906000526020600020015490506000600102816000191614151515610755576040517f08c379a00000000000000000000000000000000000000000000000000000000081526004018080602001828103825260128152602001807f73746174757320776173206e6f7420736574000000000000000000000000000081525060200191505060405180910390fd5b5b600360009054906101000a900473ffffffffffffffffffffffffffffffffffffffff1673ffffffffffffffffffffffffffffffffffffffff166108fc849081150290604051600060405180830381858888f193505050501580156107be573d6000803e3d6000fd5b5060006002858154811015156107d057fe5b906000526020600020018190555050505050565b6004818154811015156107f357fe5b906000526020600020016000915090505481565b8060048381548110151561081757fe5b9060005260206000200181600019169055505050565b60028181548110151561083c57fe5b906000526020600020016000915090505481565b600360009054906101000a900473ffffffffffffffffffffffffffffffffffffffff1681565b6000809054906101000a900473ffffffffffffffffffffffffffffffffffffffff1681565b600080905090565b60015481565b600281565b6003815600a165627a7a723058205b2e72f08ec4256edc29c210fe44c11e1d6538b9d36434e2f2ee521a51d8c68c0029",
  "source": "pragma solidity ^0.4.0;\n\nimport \"./Owned.sol\";\nimport \"./IHasSubcontracts.sol\";\nimport \"./CommonStateNames.sol\";\nimport \"./ICommonState.sol\";\nimport \"./IAccessSubcontracts.sol\";\n\ncontract K1 is ICommonState, IHasSubcontracts, CommonStateNames, Owned {\n\n    uint public state = DRAFT; // defaults to draft\n\n    uint[] public payments;\n\n    // the address where the price payments goes to\n    address public serviceProvider;\n\n    //\n    bytes32[] public status;\n\n\n    constructor(address _owner, address _serviceProvider)\n        Owned(_owner) public {\n        serviceProvider = _serviceProvider;\n        payments = new uint[](12);\n\n        payments[0] = 60000 szabo;  // jan 2018\n        payments[1] = 60000 szabo;  // feb 2018\n        payments[2] = 60000 szabo;  // mar 2018\n        payments[3] = 60000 szabo;  // apr 2018\n        payments[4] = 60000 szabo;  // may 2018\n        payments[5] = 60000 szabo;  // jun 2018\n        payments[6] = 60000 szabo;  // jul 2018\n        payments[7] = 60000 szabo;  // aug 2018\n        payments[8] = 60000 szabo;  // sep 2018\n        payments[9] = 60000 szabo;  // oct 2018\n        payments[10] = 60000 szabo; // nov 2018\n        payments[11] = 60000 szabo; // dec 2018\n\n        status = new bytes32[](12);\n    }\n\n    // state\n\n    function activate() external ownerOnly {\n        require(state == DRAFT, \"current state was not DRAFT\");\n        state = ACTIVE;\n    }\n\n    function step(uint _month) external {\n        require(state == ACTIVE, \"current state was not ACTIVE\");\n        uint amountForMonth = payments[_month];\n        require(amountForMonth > 0, \"Nothing to do, amount was 0\");\n        require(amountForMonth <= this.balance, \"The contract itself is out of money\");\n\n        uint rest = (_month+1) % 3;\n        if (rest == 0) {\n            bytes32 b = status[_month];\n            require(b != 0x0, \"status was not set\");\n        }\n\n        serviceProvider.transfer(amountForMonth);\n        payments[_month] = 0;\n    }\n\n    function setStatus(uint month, bytes32 _status) external {\n        // enable this if its required that setStatus is NOT overwriting existing status\n//        bytes32 b = status[month];\n//        require(b == 0x0, \"status was already set\");\n        status[month] = _status;\n    }\n\n    // the contract can hold ether\n    function () payable {\n    }\n\n    // implementation of ICommonState\n    function getState() external constant returns(uint) {\n        return state;\n    }\n\n    // IHasSubcontracts\n    function countSubcontracts() external constant returns(uint) {\n        return 0;\n    }\n}\n",
  "sourcePath": "/Users/julian/work-git/multisig-contracts/ethereum/contracts/K1.sol",
  "compiler": {
    "name": "solc",
    "version": "0.4.24+commit.e67f0147.Emscripten.clang"
  },
  "schemaVersion": "2.0.1",
  "updatedAt": "2018-11-28T15:01:34.640Z"
}