{
  "contractName": "K1",
  "abi": [
    {
      "constant": true,
      "inputs": [],
      "name": "DRAFT",
      "outputs": [
        {
          "name": "",
          "type": "uint256"
        }
      ],
      "payable": false,
      "stateMutability": "view",
      "type": "function"
    },
    {
      "constant": true,
      "inputs": [],
      "name": "EXPIRED",
      "outputs": [
        {
          "name": "",
          "type": "uint256"
        }
      ],
      "payable": false,
      "stateMutability": "view",
      "type": "function"
    },
    {
      "constant": true,
      "inputs": [
        {
          "name": "",
          "type": "uint256"
        }
      ],
      "name": "status",
      "outputs": [
        {
          "name": "",
          "type": "bytes32"
        }
      ],
      "payable": false,
      "stateMutability": "view",
      "type": "function"
    },
    {
      "constant": true,
      "inputs": [
        {
          "name": "",
          "type": "uint256"
        }
      ],
      "name": "payments",
      "outputs": [
        {
          "name": "",
          "type": "uint256"
        }
      ],
      "payable": false,
      "stateMutability": "view",
      "type": "function"
    },
    {
      "constant": true,
      "inputs": [],
      "name": "serviceProvider",
      "outputs": [
        {
          "name": "",
          "type": "address"
        }
      ],
      "payable": false,
      "stateMutability": "view",
      "type": "function"
    },
    {
      "constant": true,
      "inputs": [],
      "name": "owner",
      "outputs": [
        {
          "name": "",
          "type": "address"
        }
      ],
      "payable": false,
      "stateMutability": "view",
      "type": "function"
    },
    {
      "constant": true,
      "inputs": [],
      "name": "state",
      "outputs": [
        {
          "name": "",
          "type": "uint256"
        }
      ],
      "payable": false,
      "stateMutability": "view",
      "type": "function"
    },
    {
      "constant": true,
      "inputs": [],
      "name": "ACTIVE",
      "outputs": [
        {
          "name": "",
          "type": "uint256"
        }
      ],
      "payable": false,
      "stateMutability": "view",
      "type": "function"
    },
    {
      "constant": true,
      "inputs": [],
      "name": "KR",
      "outputs": [
        {
          "name": "",
          "type": "uint256"
        }
      ],
      "payable": false,
      "stateMutability": "view",
      "type": "function"
    },
    {
      "constant": true,
      "inputs": [],
      "name": "TERMINATED",
      "outputs": [
        {
          "name": "",
          "type": "uint256"
        }
      ],
      "payable": false,
      "stateMutability": "view",
      "type": "function"
    },
    {
      "inputs": [
        {
          "name": "_owner",
          "type": "address"
        },
        {
          "name": "_serviceProvider",
          "type": "address"
        }
      ],
      "payable": false,
      "stateMutability": "nonpayable",
      "type": "constructor"
    },
    {
      "payable": true,
      "stateMutability": "payable",
      "type": "fallback"
    },
    {
      "constant": false,
      "inputs": [],
      "name": "activate",
      "outputs": [],
      "payable": false,
      "stateMutability": "nonpayable",
      "type": "function"
    },
    {
      "constant": false,
      "inputs": [
        {
          "name": "_month",
          "type": "uint256"
        }
      ],
      "name": "step",
      "outputs": [],
      "payable": false,
      "stateMutability": "nonpayable",
      "type": "function"
    },
    {
      "constant": false,
      "inputs": [
        {
          "name": "month",
          "type": "uint256"
        },
        {
          "name": "_status",
          "type": "bytes32"
        }
      ],
      "name": "setStatus",
      "outputs": [],
      "payable": false,
      "stateMutability": "nonpayable",
      "type": "function"
    },
    {
      "constant": true,
      "inputs": [],
      "name": "getState",
      "outputs": [
        {
          "name": "",
          "type": "uint256"
        }
      ],
      "payable": false,
      "stateMutability": "view",
      "type": "function"
    },
    {
      "constant": true,
      "inputs": [],
      "name": "countSubcontracts",
      "outputs": [
        {
          "name": "",
          "type": "uint256"
        }
      ],
      "payable": false,
      "stateMutability": "view",
      "type": "function"
    }
  ],
  "bytecode": "0x6080604052600180553480156200001557600080fd5b5060405160408062000dc2833981018060405281019080805190602001909291908051906020019092919050505081806000806101000a81548173ffffffffffffffffffffffffffffffffffffffff021916908373ffffffffffffffffffffffffffffffffffffffff1602179055505080600360006101000a81548173ffffffffffffffffffffffffffffffffffffffff021916908373ffffffffffffffffffffffffffffffffffffffff160217905550600c604051908082528060200260200182016040528015620000f75781602001602082028038833980820191505090505b50600290805190602001906200010f9291906200034d565b5064e8d4a5100061ea6002600260008154811015156200012b57fe5b906000526020600020018190555064e8d4a5100061ea6002600260018154811015156200015457fe5b906000526020600020018190555064e8d4a5100061ea60026002808154811015156200017c57fe5b906000526020600020018190555064e8d4a5100061ea600260026003815481101515620001a557fe5b906000526020600020018190555064e8d4a5100061ea600260026004815481101515620001ce57fe5b906000526020600020018190555064e8d4a5100061ea600260026005815481101515620001f757fe5b906000526020600020018190555064e8d4a5100061ea6002600260068154811015156200022057fe5b906000526020600020018190555064e8d4a5100061ea6002600260078154811015156200024957fe5b906000526020600020018190555064e8d4a5100061ea6002600260088154811015156200027257fe5b906000526020600020018190555064e8d4a5100061ea6002600260098154811015156200029b57fe5b906000526020600020018190555064e8d4a5100061ea60026002600a815481101515620002c457fe5b906000526020600020018190555064e8d4a5100061ea60026002600b815481101515620002ed57fe5b9060005260206000200181905550600c6040519080825280602002602001820160405280156200032c5781602001602082028038833980820191505090505b5060049080519060200190620003449291906200039f565b50505062000447565b8280548282559060005260206000209081019282156200038c579160200282015b828111156200038b5782518255916020019190600101906200036e565b5b5090506200039b9190620003f7565b5090565b828054828255906000526020600020908101928215620003e4579160200282015b82811115620003e3578251829060001916905591602001919060010190620003c0565b5b509050620003f391906200041f565b5090565b6200041c91905b8082111562000418576000816000905550600101620003fe565b5090565b90565b6200044491905b808211156200044057600081600090555060010162000426565b5090565b90565b61096b80620004576000396000f3006080604052600436106100db576000357c0100000000000000000000000000000000000000000000000000000000900463ffffffff1680630762f731146100dd5780630f15f4c0146101085780631865c57d1461011f5780633a1cde751461014a578063414ac85b1461017757806342d21ef7146101a25780637aa4a54b146101eb57806387d81789146102265780638d69e95e146102675780638da5cb5b146102be5780639189a1cd14610315578063c19d93fb14610340578063c90bd0471461036b578063dae1b07614610396578063dc04be85146103c1575b005b3480156100e957600080fd5b506100f26103ec565b6040518082815260200191505060405180910390f35b34801561011457600080fd5b5061011d6103f1565b005b34801561012b57600080fd5b50610134610538565b6040518082815260200191505060405180910390f35b34801561015657600080fd5b5061017560048036038101908080359060200190929190505050610542565b005b34801561018357600080fd5b5061018c610862565b6040518082815260200191505060405180910390f35b3480156101ae57600080fd5b506101cd60048036038101908080359060200190929190505050610867565b60405180826000191660001916815260200191505060405180910390f35b3480156101f757600080fd5b5061022460048036038101908080359060200190929190803560001916906020019092919050505061088a565b005b34801561023257600080fd5b50610251600480360381019080803590602001909291905050506108b0565b6040518082815260200191505060405180910390f35b34801561027357600080fd5b5061027c6108d3565b604051808273ffffffffffffffffffffffffffffffffffffffff1673ffffffffffffffffffffffffffffffffffffffff16815260200191505060405180910390f35b3480156102ca57600080fd5b506102d36108f9565b604051808273ffffffffffffffffffffffffffffffffffffffff1673ffffffffffffffffffffffffffffffffffffffff16815260200191505060405180910390f35b34801561032157600080fd5b5061032a61091e565b6040518082815260200191505060405180910390f35b34801561034c57600080fd5b50610355610926565b6040518082815260200191505060405180910390f35b34801561037757600080fd5b5061038061092c565b6040518082815260200191505060405180910390f35b3480156103a257600080fd5b506103ab610931565b6040518082815260200191505060405180910390f35b3480156103cd57600080fd5b506103d661093a565b6040518082815260200191505060405180910390f35b600181565b3373ffffffffffffffffffffffffffffffffffffffff166000809054906101000a900473ffffffffffffffffffffffffffffffffffffffff1673ffffffffffffffffffffffffffffffffffffffff161415156104b5576040517f08c379a00000000000000000000000000000000000000000000000000000000081526004018080602001828103825260188152602001807f6d73672e73656e64657220776173206e6f74206f776e6572000000000000000081525060200191505060405180910390fd5b6001805414151561052e576040517f08c379a000000000000000000000000000000000000000000000000000000000815260040180806020018281038252601b8152602001807f63757272656e7420737461746520776173206e6f74204452414654000000000081525060200191505060405180910390fd5b6002600181905550565b6000600154905090565b600080600060026001541415156105c1576040517f08c379a000000000000000000000000000000000000000000000000000000000815260040180806020018281038252601c8152602001807f63757272656e7420737461746520776173206e6f74204143544956450000000081525060200191505060405180910390fd5b6002848154811015156105d057fe5b90600052602060002001549250600083111515610655576040517f08c379a000000000000000000000000000000000000000000000000000000000815260040180806020018281038252601b8152602001807f4e6f7468696e6720746f20646f2c20616d6f756e74207761732030000000000081525060200191505060405180910390fd5b3073ffffffffffffffffffffffffffffffffffffffff1631831115151561070a576040517f08c379a00000000000000000000000000000000000000000000000000000000081526004018080602001828103825260238152602001807f54686520636f6e747261637420697473656c66206973206f7574206f66206d6f81526020017f6e6579000000000000000000000000000000000000000000000000000000000081525060400191505060405180910390fd5b60036001850181151561071957fe5b06915060008214156107c25760048481548110151561073457fe5b9060005260206000200154905060006001028160001916141515156107c1576040517f08c379a00000000000000000000000000000000000000000000000000000000081526004018080602001828103825260128152602001807f73746174757320776173206e6f7420736574000000000000000000000000000081525060200191505060405180910390fd5b5b600360009054906101000a900473ffffffffffffffffffffffffffffffffffffffff1673ffffffffffffffffffffffffffffffffffffffff166108fc849081150290604051600060405180830381858888f1935050505015801561082a573d6000803e3d6000fd5b50600060028581548110151561083c57fe5b9060005260206000200181905550600b84141561085c5760046001819055505b50505050565b600481565b60048181548110151561087657fe5b906000526020600020016000915090505481565b8060048381548110151561089a57fe5b9060005260206000200181600019169055505050565b6002818154811015156108bf57fe5b906000526020600020016000915090505481565b600360009054906101000a900473ffffffffffffffffffffffffffffffffffffffff1681565b6000809054906101000a900473ffffffffffffffffffffffffffffffffffffffff1681565b600080905090565b60015481565b600281565b64e8d4a5100081565b6003815600a165627a7a72305820c3a7047c8f6f0345134ff8077f3889c4834716aab88211d1e42c79dae0e31ccb0029",
  "source": "pragma solidity ^0.4.0;\n\nimport \"./Owned.sol\";\nimport \"./IHasSubcontracts.sol\";\nimport \"./CommonStateNames.sol\";\nimport \"./ICommonState.sol\";\nimport \"./IAccessSubcontracts.sol\";\nimport \"./KCommon.sol\";\n\ncontract K1 is ICommonState, IHasSubcontracts, CommonStateNames, KCommon, Owned {\n\n    uint public state = DRAFT; // defaults to draft\n\n    uint[] public payments;\n\n    // the address where the price payments goes to\n    address public serviceProvider;\n\n    //\n    bytes32[] public status;\n\n\n    constructor(address _owner, address _serviceProvider)\n        Owned(_owner) public {\n        serviceProvider = _serviceProvider;\n        payments = new uint[](12);\n\n        payments[0] = 60000 * KR;  // jan 2018\n        payments[1] = 60000 * KR;  // feb 2018\n        payments[2] = 60000 * KR;  // mar 2018\n        payments[3] = 60000 * KR;  // apr 2018\n        payments[4] = 60000 * KR;  // may 2018\n        payments[5] = 60000 * KR;  // jun 2018\n        payments[6] = 60000 * KR;  // jul 2018\n        payments[7] = 60000 * KR;  // aug 2018\n        payments[8] = 60000 * KR;  // sep 2018\n        payments[9] = 60000 * KR;  // oct 2018\n        payments[10] = 60000 * KR; // nov 2018\n        payments[11] = 60000 * KR; // dec 2018\n\n        status = new bytes32[](12);\n    }\n\n    // state\n\n    function activate() external ownerOnly {\n        require(state == DRAFT, \"current state was not DRAFT\");\n        state = ACTIVE;\n    }\n\n    function step(uint _month) external {\n        require(state == ACTIVE, \"current state was not ACTIVE\");\n        uint amountForMonth = payments[_month];\n        require(amountForMonth > 0, \"Nothing to do, amount was 0\");\n        require(amountForMonth <= this.balance, \"The contract itself is out of money\");\n\n        uint rest = (_month+1) % 3;\n        if (rest == 0) {\n            bytes32 b = status[_month];\n            require(b != 0x0, \"status was not set\");\n        }\n\n        serviceProvider.transfer(amountForMonth);\n        payments[_month] = 0;\n\n        if (_month == 11) {\n            state = EXPIRED;\n        }\n    }\n\n    function setStatus(uint month, bytes32 _status) external {\n        // enable this if its required that setStatus is NOT overwriting existing status\n//        bytes32 b = status[month];\n//        require(b == 0x0, \"status was already set\");\n        status[month] = _status;\n    }\n\n    // the contract can hold ether\n    function () payable {\n    }\n\n    // implementation of ICommonState\n    function getState() external constant returns(uint) {\n        return state;\n    }\n\n    // IHasSubcontracts\n    function countSubcontracts() external constant returns(uint) {\n        return 0;\n    }\n}\n",
  "sourcePath": "/Users/julian/work-git/multisig-contracts/ethereum/contracts/K1.sol",
  "compiler": {
    "name": "solc",
    "version": "0.4.24+commit.e67f0147.Emscripten.clang"
  },
  "schemaVersion": "2.0.1",
  "updatedAt": "2018-12-05T13:58:51.556Z"
}