{
  "contractName": "K1",
  "abi": [
    {
      "constant": true,
      "inputs": [],
      "name": "DRAFT",
      "outputs": [
        {
          "name": "",
          "type": "uint256"
        }
      ],
      "payable": false,
      "stateMutability": "view",
      "type": "function"
    },
    {
      "constant": true,
      "inputs": [],
      "name": "numSubcontracts",
      "outputs": [
        {
          "name": "",
          "type": "uint256"
        }
      ],
      "payable": false,
      "stateMutability": "view",
      "type": "function"
    },
    {
      "constant": true,
      "inputs": [],
      "name": "serviceProvider",
      "outputs": [
        {
          "name": "",
          "type": "address"
        }
      ],
      "payable": false,
      "stateMutability": "view",
      "type": "function"
    },
    {
      "constant": true,
      "inputs": [],
      "name": "owner",
      "outputs": [
        {
          "name": "",
          "type": "address"
        }
      ],
      "payable": false,
      "stateMutability": "view",
      "type": "function"
    },
    {
      "constant": true,
      "inputs": [],
      "name": "subcontract",
      "outputs": [
        {
          "name": "",
          "type": "address"
        }
      ],
      "payable": false,
      "stateMutability": "view",
      "type": "function"
    },
    {
      "constant": true,
      "inputs": [],
      "name": "totalPrice",
      "outputs": [
        {
          "name": "",
          "type": "uint256"
        }
      ],
      "payable": false,
      "stateMutability": "view",
      "type": "function"
    },
    {
      "constant": true,
      "inputs": [],
      "name": "state",
      "outputs": [
        {
          "name": "",
          "type": "uint256"
        }
      ],
      "payable": false,
      "stateMutability": "view",
      "type": "function"
    },
    {
      "constant": true,
      "inputs": [],
      "name": "ACTIVE",
      "outputs": [
        {
          "name": "",
          "type": "uint256"
        }
      ],
      "payable": false,
      "stateMutability": "view",
      "type": "function"
    },
    {
      "constant": true,
      "inputs": [],
      "name": "TERMINATED",
      "outputs": [
        {
          "name": "",
          "type": "uint256"
        }
      ],
      "payable": false,
      "stateMutability": "view",
      "type": "function"
    },
    {
      "inputs": [
        {
          "name": "_owner",
          "type": "address"
        },
        {
          "name": "_serviceProvider",
          "type": "address"
        }
      ],
      "payable": false,
      "stateMutability": "nonpayable",
      "type": "constructor"
    },
    {
      "constant": false,
      "inputs": [],
      "name": "activate",
      "outputs": [],
      "payable": false,
      "stateMutability": "nonpayable",
      "type": "function"
    },
    {
      "constant": false,
      "inputs": [],
      "name": "terminate",
      "outputs": [],
      "payable": false,
      "stateMutability": "nonpayable",
      "type": "function"
    },
    {
      "constant": true,
      "inputs": [],
      "name": "getState",
      "outputs": [
        {
          "name": "",
          "type": "uint256"
        }
      ],
      "payable": false,
      "stateMutability": "view",
      "type": "function"
    },
    {
      "constant": true,
      "inputs": [],
      "name": "countSubcontracts",
      "outputs": [
        {
          "name": "",
          "type": "uint256"
        }
      ],
      "payable": false,
      "stateMutability": "view",
      "type": "function"
    },
    {
      "constant": false,
      "inputs": [
        {
          "name": "_subcontract",
          "type": "address"
        }
      ],
      "name": "add",
      "outputs": [],
      "payable": false,
      "stateMutability": "nonpayable",
      "type": "function"
    },
    {
      "constant": true,
      "inputs": [
        {
          "name": "_index",
          "type": "uint256"
        }
      ],
      "name": "getSubcontract",
      "outputs": [
        {
          "name": "",
          "type": "address"
        }
      ],
      "payable": false,
      "stateMutability": "view",
      "type": "function"
    }
  ],
  "bytecode": "0x60806040526001805534801561001457600080fd5b50604051604080610be6833981018060405281019080805190602001909291908051906020019092919050505081806000806101000a81548173ffffffffffffffffffffffffffffffffffffffff021916908373ffffffffffffffffffffffffffffffffffffffff1602179055505080600260006101000a81548173ffffffffffffffffffffffffffffffffffffffff021916908373ffffffffffffffffffffffffffffffffffffffff1602179055505050610b11806100d56000396000f3006080604052600436106100db576000357c0100000000000000000000000000000000000000000000000000000000900463ffffffff1680630762f731146100e05780630a3b0a4f1461010b5780630aa832731461014e5780630c08bf88146101795780630f15f4c0146101905780631865c57d146101a75780638d69e95e146101d25780638da5cb5b146102295780639189a1cd14610280578063a80b6ee8146102ab578063ab0d92dd14610302578063afe07dda1461032d578063c19d93fb1461039a578063c90bd047146103c5578063dc04be85146103f0575b600080fd5b3480156100ec57600080fd5b506100f561041b565b6040518082815260200191505060405180910390f35b34801561011757600080fd5b5061014c600480360381019080803573ffffffffffffffffffffffffffffffffffffffff169060200190929190505050610420565b005b34801561015a57600080fd5b50610163610569565b6040518082815260200191505060405180910390f35b34801561018557600080fd5b5061018e61056f565b005b34801561019c57600080fd5b506101a56108cf565b005b3480156101b357600080fd5b506101bc610a16565b6040518082815260200191505060405180910390f35b3480156101de57600080fd5b506101e7610a20565b604051808273ffffffffffffffffffffffffffffffffffffffff1673ffffffffffffffffffffffffffffffffffffffff16815260200191505060405180910390f35b34801561023557600080fd5b5061023e610a46565b604051808273ffffffffffffffffffffffffffffffffffffffff1673ffffffffffffffffffffffffffffffffffffffff16815260200191505060405180910390f35b34801561028c57600080fd5b50610295610a6b565b6040518082815260200191505060405180910390f35b3480156102b757600080fd5b506102c0610a75565b604051808273ffffffffffffffffffffffffffffffffffffffff1673ffffffffffffffffffffffffffffffffffffffff16815260200191505060405180910390f35b34801561030e57600080fd5b50610317610a9b565b6040518082815260200191505060405180910390f35b34801561033957600080fd5b5061035860048036038101908080359060200190929190505050610aa9565b604051808273ffffffffffffffffffffffffffffffffffffffff1673ffffffffffffffffffffffffffffffffffffffff16815260200191505060405180910390f35b3480156103a657600080fd5b506103af610ad5565b6040518082815260200191505060405180910390f35b3480156103d157600080fd5b506103da610adb565b6040518082815260200191505060405180910390f35b3480156103fc57600080fd5b50610405610ae0565b6040518082815260200191505060405180910390f35b600181565b600260009054906101000a900473ffffffffffffffffffffffffffffffffffffffff1673ffffffffffffffffffffffffffffffffffffffff163373ffffffffffffffffffffffffffffffffffffffff1614151561047c57600080fd5b60036001541415151561051d576040517f08c379a00000000000000000000000000000000000000000000000000000000081526004018080602001828103825260348152602001807f7374617465206d757374206e6f74206265205445524d494e415445442077686581526020017f6e20616464696e6720737562636f6e747261637400000000000000000000000081525060400191505060405180910390fd5b600160048190555080600360006101000a81548173ffffffffffffffffffffffffffffffffffffffff021916908373ffffffffffffffffffffffffffffffffffffffff16021790555050565b60045481565b3373ffffffffffffffffffffffffffffffffffffffff166000809054906101000a900473ffffffffffffffffffffffffffffffffffffffff1673ffffffffffffffffffffffffffffffffffffffff16141515610633576040517f08c379a00000000000000000000000000000000000000000000000000000000081526004018080602001828103825260188152602001807f6d73672e73656e64657220776173206e6f74206f776e6572000000000000000081525060200191505060405180910390fd5b60026001541415156106ad576040517f08c379a000000000000000000000000000000000000000000000000000000000815260040180806020018281038252601b8152602001807f63757272656e7420737461746520776173206e6f74204452414654000000000081525060200191505060405180910390fd5b69261dd1ce2f2088800000600260009054906101000a900473ffffffffffffffffffffffffffffffffffffffff1673ffffffffffffffffffffffffffffffffffffffff16311015151561078e576040517f08c379a00000000000000000000000000000000000000000000000000000000081526004018080602001828103825260388152602001807f7365727669636550726f76696465722e62616c616e636520646964206e6f742081526020017f686f6c642074686520726571756972656420616d6f756e74000000000000000081525060400191505060405180910390fd5b60038060009054906101000a900473ffffffffffffffffffffffffffffffffffffffff1673ffffffffffffffffffffffffffffffffffffffff16631865c57d6040518163ffffffff167c0100000000000000000000000000000000000000000000000000000000028152600401602060405180830381600087803b15801561081557600080fd5b505af1158015610829573d6000803e3d6000fd5b505050506040513d602081101561083f57600080fd5b81019080805190602001909291905050501415156108c5576040517f08c379a000000000000000000000000000000000000000000000000000000000815260040180806020018281038252601e8152602001807f737562636f6e747261637420776173206e6f74207465726d696e61746564000081525060200191505060405180910390fd5b6003600181905550565b3373ffffffffffffffffffffffffffffffffffffffff166000809054906101000a900473ffffffffffffffffffffffffffffffffffffffff1673ffffffffffffffffffffffffffffffffffffffff16141515610993576040517f08c379a00000000000000000000000000000000000000000000000000000000081526004018080602001828103825260188152602001807f6d73672e73656e64657220776173206e6f74206f776e6572000000000000000081525060200191505060405180910390fd5b60018054141515610a0c576040517f08c379a000000000000000000000000000000000000000000000000000000000815260040180806020018281038252601b8152602001807f63757272656e7420737461746520776173206e6f74204452414654000000000081525060200191505060405180910390fd5b6002600181905550565b6000600154905090565b600260009054906101000a900473ffffffffffffffffffffffffffffffffffffffff1681565b6000809054906101000a900473ffffffffffffffffffffffffffffffffffffffff1681565b6000600454905090565b600360009054906101000a900473ffffffffffffffffffffffffffffffffffffffff1681565b69261dd1ce2f208880000081565b6000600360009054906101000a900473ffffffffffffffffffffffffffffffffffffffff169050919050565b60015481565b600281565b6003815600a165627a7a723058200d965680fc46ec24a6652199bae04915ceeed564cf0b60aca0e0e50f5c93eb930029",
  "source": "pragma solidity ^0.4.0;\n\nimport \"./Owned.sol\";\nimport \"./IHasSubcontracts.sol\";\nimport \"./CommonStateNames.sol\";\nimport \"./ICommonState.sol\";\nimport \"./IAccessSubcontracts.sol\";\n\ncontract K1 is ICommonState, IHasSubcontracts, IAccessSubcontracts, CommonStateNames, Owned {\n\n    uint public state = DRAFT; // defaults to draft\n\n    // the price\n    uint public constant totalPrice = 180000 ether;\n\n    // the address where the price payments goes to\n    address public serviceProvider;\n\n    // address of the sub contract\n    ICommonState public subcontract;\n    // count number of sub contracts (here we only have 1, see also the `add` method)\n    uint public numSubcontracts;\n\n    modifier serviceProviderOnly {\n        require(msg.sender == serviceProvider);\n        _;\n    }\n\n    constructor(address _owner, address _serviceProvider)\n        Owned(_owner) public {\n        serviceProvider = _serviceProvider;\n    }\n\n    // state\n\n    function activate() external ownerOnly {\n        require(state == DRAFT, \"current state was not DRAFT\");\n        state = ACTIVE;\n    }\n\n    function terminate() external ownerOnly {\n        require(state == ACTIVE, \"current state was not DRAFT\");\n        require(serviceProvider.balance >= totalPrice, \"serviceProvider.balance did not hold the required amount\");\n        require(subcontract.getState() == TERMINATED, \"subcontract was not terminated\");\n        state = TERMINATED;\n    }\n\n    // implementation of ICommonState\n    function getState() external constant returns(uint) {\n        return state;\n    }\n\n    // IHasSubcontracts\n    function countSubcontracts() external constant returns(uint) {\n        return numSubcontracts;\n    }\n\n    // IAccessSubcontracts\n    function add(ICommonState _subcontract) serviceProviderOnly external {\n        require(state != TERMINATED, \"state must not be TERMINATED when adding subcontract\");\n        numSubcontracts = 1;\n        subcontract = ICommonState(_subcontract);\n    }\n\n    function getSubcontract(uint _index) external constant returns(address) {\n        return subcontract;\n    }\n}\n",
  "sourcePath": "/Users/julian/work-git/multisig-contracts/ethereum/contracts/K1.sol",
  "compiler": {
    "name": "solc",
    "version": "0.4.24+commit.e67f0147.Emscripten.clang"
  },
  "schemaVersion": "2.0.1",
  "updatedAt": "2018-11-26T14:03:36.691Z"
}