{
  "contractName": "K2",
  "abi": [
    {
      "constant": true,
      "inputs": [],
      "name": "DRAFT",
      "outputs": [
        {
          "name": "",
          "type": "uint256"
        }
      ],
      "payable": false,
      "stateMutability": "view",
      "type": "function"
    },
    {
      "constant": true,
      "inputs": [],
      "name": "serviceProvider",
      "outputs": [
        {
          "name": "",
          "type": "address"
        }
      ],
      "payable": false,
      "stateMutability": "view",
      "type": "function"
    },
    {
      "constant": true,
      "inputs": [],
      "name": "owner",
      "outputs": [
        {
          "name": "",
          "type": "address"
        }
      ],
      "payable": false,
      "stateMutability": "view",
      "type": "function"
    },
    {
      "constant": true,
      "inputs": [],
      "name": "state",
      "outputs": [
        {
          "name": "",
          "type": "uint256"
        }
      ],
      "payable": false,
      "stateMutability": "view",
      "type": "function"
    },
    {
      "constant": true,
      "inputs": [],
      "name": "ACTIVE",
      "outputs": [
        {
          "name": "",
          "type": "uint256"
        }
      ],
      "payable": false,
      "stateMutability": "view",
      "type": "function"
    },
    {
      "constant": true,
      "inputs": [],
      "name": "TERMINATED",
      "outputs": [
        {
          "name": "",
          "type": "uint256"
        }
      ],
      "payable": false,
      "stateMutability": "view",
      "type": "function"
    },
    {
      "inputs": [
        {
          "name": "_owner",
          "type": "address"
        },
        {
          "name": "_serviceProvider",
          "type": "address"
        }
      ],
      "payable": false,
      "stateMutability": "nonpayable",
      "type": "constructor"
    },
    {
      "payable": true,
      "stateMutability": "payable",
      "type": "fallback"
    },
    {
      "constant": false,
      "inputs": [],
      "name": "activate",
      "outputs": [],
      "payable": false,
      "stateMutability": "nonpayable",
      "type": "function"
    },
    {
      "constant": false,
      "inputs": [
        {
          "name": "_month",
          "type": "uint256"
        }
      ],
      "name": "step",
      "outputs": [],
      "payable": false,
      "stateMutability": "nonpayable",
      "type": "function"
    },
    {
      "constant": true,
      "inputs": [],
      "name": "getState",
      "outputs": [
        {
          "name": "",
          "type": "uint256"
        }
      ],
      "payable": false,
      "stateMutability": "view",
      "type": "function"
    },
    {
      "constant": true,
      "inputs": [],
      "name": "countSubcontracts",
      "outputs": [
        {
          "name": "",
          "type": "uint256"
        }
      ],
      "payable": false,
      "stateMutability": "view",
      "type": "function"
    }
  ],
  "bytecode": "0x60806040526001805534801561001457600080fd5b50604051604080610a2a833981018060405281019080805190602001909291908051906020019092919050505081806000806101000a81548173ffffffffffffffffffffffffffffffffffffffff021916908373ffffffffffffffffffffffffffffffffffffffff1602179055505080600360006101000a81548173ffffffffffffffffffffffffffffffffffffffff021916908373ffffffffffffffffffffffffffffffffffffffff160217905550600c6040519080825280602002602001820160405280156100f45781602001602082028038833980820191505090505b506002908051906020019061010a9291906102d9565b50666a94d74f4300006002600081548110151561012357fe5b9060005260206000200181905550666a94d74f4300006002600181548110151561014957fe5b9060005260206000200181905550666a94d74f43000060028081548110151561016e57fe5b9060005260206000200181905550666a94d74f4300006002600381548110151561019457fe5b9060005260206000200181905550666a94d74f430000600260048154811015156101ba57fe5b9060005260206000200181905550666a94d74f430000600260058154811015156101e057fe5b9060005260206000200181905550666a94d74f4300006002600681548110151561020657fe5b9060005260206000200181905550666a94d74f4300006002600781548110151561022c57fe5b9060005260206000200181905550666a94d74f4300006002600881548110151561025257fe5b9060005260206000200181905550666a94d74f4300006002600981548110151561027857fe5b9060005260206000200181905550666a94d74f4300006002600a81548110151561029e57fe5b9060005260206000200181905550666a94d74f4300006002600b8154811015156102c457fe5b9060005260206000200181905550505061034b565b828054828255906000526020600020908101928215610315579160200282015b828111156103145782518255916020019190600101906102f9565b5b5090506103229190610326565b5090565b61034891905b8082111561034457600081600090555060010161032c565b5090565b90565b6106d08061035a6000396000f3006080604052600436106100a4576000357c0100000000000000000000000000000000000000000000000000000000900463ffffffff1680630762f731146100a65780630f15f4c0146100d15780631865c57d146100e85780633a1cde75146101135780638d69e95e146101405780638da5cb5b146101975780639189a1cd146101ee578063c19d93fb14610219578063c90bd04714610244578063dc04be851461026f575b005b3480156100b257600080fd5b506100bb61029a565b6040518082815260200191505060405180910390f35b3480156100dd57600080fd5b506100e661029f565b005b3480156100f457600080fd5b506100fd6103e6565b6040518082815260200191505060405180910390f35b34801561011f57600080fd5b5061013e600480360381019080803590602001909291905050506103f0565b005b34801561014c57600080fd5b50610155610641565b604051808273ffffffffffffffffffffffffffffffffffffffff1673ffffffffffffffffffffffffffffffffffffffff16815260200191505060405180910390f35b3480156101a357600080fd5b506101ac610667565b604051808273ffffffffffffffffffffffffffffffffffffffff1673ffffffffffffffffffffffffffffffffffffffff16815260200191505060405180910390f35b3480156101fa57600080fd5b5061020361068c565b6040518082815260200191505060405180910390f35b34801561022557600080fd5b5061022e610694565b6040518082815260200191505060405180910390f35b34801561025057600080fd5b5061025961069a565b6040518082815260200191505060405180910390f35b34801561027b57600080fd5b5061028461069f565b6040518082815260200191505060405180910390f35b600181565b3373ffffffffffffffffffffffffffffffffffffffff166000809054906101000a900473ffffffffffffffffffffffffffffffffffffffff1673ffffffffffffffffffffffffffffffffffffffff16141515610363576040517f08c379a00000000000000000000000000000000000000000000000000000000081526004018080602001828103825260188152602001807f6d73672e73656e64657220776173206e6f74206f776e6572000000000000000081525060200191505060405180910390fd5b600180541415156103dc576040517f08c379a000000000000000000000000000000000000000000000000000000000815260040180806020018281038252601b8152602001807f63757272656e7420737461746520776173206e6f74204452414654000000000081525060200191505060405180910390fd5b6002600181905550565b6000600154905090565b6000600260015414151561046c576040517f08c379a000000000000000000000000000000000000000000000000000000000815260040180806020018281038252601c8152602001807f63757272656e7420737461746520776173206e6f74204143544956450000000081525060200191505060405180910390fd5b60028281548110151561047b57fe5b90600052602060002001549050600081111515610500576040517f08c379a000000000000000000000000000000000000000000000000000000000815260040180806020018281038252601b8152602001807f4e6f7468696e6720746f20646f2c20616d6f756e74207761732030000000000081525060200191505060405180910390fd5b3073ffffffffffffffffffffffffffffffffffffffff163181111515156105b5576040517f08c379a00000000000000000000000000000000000000000000000000000000081526004018080602001828103825260238152602001807f54686520636f6e747261637420697473656c66206973206f7574206f66206d6f81526020017f6e6579000000000000000000000000000000000000000000000000000000000081525060400191505060405180910390fd5b600360009054906101000a900473ffffffffffffffffffffffffffffffffffffffff1673ffffffffffffffffffffffffffffffffffffffff166108fc829081150290604051600060405180830381858888f1935050505015801561061d573d6000803e3d6000fd5b50600060028381548110151561062f57fe5b90600052602060002001819055505050565b600360009054906101000a900473ffffffffffffffffffffffffffffffffffffffff1681565b6000809054906101000a900473ffffffffffffffffffffffffffffffffffffffff1681565b600080905090565b60015481565b600281565b6003815600a165627a7a72305820cf24f48462f096ed5b898635ff907051b70237bad15fde714b60e78975c4c0310029",
  "source": "pragma solidity ^0.4.0;\n\nimport \"./Owned.sol\";\nimport \"./IHasSubcontracts.sol\";\nimport \"./CommonStateNames.sol\";\nimport \"./ICommonState.sol\";\nimport \"./IAccessSubcontracts.sol\";\n\ncontract K2 is ICommonState, IHasSubcontracts, CommonStateNames, Owned {\n\n    uint public state = DRAFT; // defaults to draft\n\n    uint[] payments;\n\n    // the address where the price payments goes to\n    address public serviceProvider;\n\n    modifier serviceProviderOnly {\n        require(msg.sender == serviceProvider);\n        _;\n    }\n\n    constructor(address _owner, address _serviceProvider)\n        Owned(_owner) public {\n        serviceProvider = _serviceProvider;\n        payments = new uint[](12);\n\n        payments[0] =  30000 szabo;  // jan 2018\n        payments[1] =  30000 szabo;  // feb 2018\n        payments[2] =  30000 szabo;  // mar 2018\n        payments[3] =  30000 szabo;  // apr 2018\n        payments[4] =  30000 szabo;  // may 2018\n        payments[5] =  30000 szabo;  // jun 2018\n        payments[6] =  30000 szabo;  // jul 2018\n        payments[7] =  30000 szabo;  // aug 2018\n        payments[8] =  30000 szabo;  // sep 2018\n        payments[9] =  30000 szabo;  // oct 2018\n        payments[10] = 30000 szabo; // nov 2018\n        payments[11] = 30000 szabo; // dec 2018\n    }\n\n    // state\n    function activate() external ownerOnly {\n        require(state == DRAFT, \"current state was not DRAFT\");\n        state = ACTIVE;\n    }\n\n    function step(uint _month) external {\n        require(state == ACTIVE, \"current state was not ACTIVE\");\n        uint amountForMonth = payments[_month];\n        require(amountForMonth > 0, \"Nothing to do, amount was 0\");\n        require(amountForMonth <= this.balance, \"The contract itself is out of money\");\n        serviceProvider.transfer(amountForMonth);\n        payments[_month] = 0;\n    }\n\n    // the contract can hold ether\n    function () payable {\n    }\n\n    // implementation of ICommonState\n    function getState() external constant returns(uint) {\n        return state;\n    }\n\n    // IHasSubcontracts\n    function countSubcontracts() external constant returns(uint) {\n        return 0;\n    }\n}\n",
  "sourcePath": "/Users/julian/work-git/multisig-contracts/ethereum/contracts/K2.sol",
  "compiler": {
    "name": "solc",
    "version": "0.4.24+commit.e67f0147.Emscripten.clang"
  },
  "schemaVersion": "2.0.1",
  "updatedAt": "2018-11-28T15:01:34.641Z"
}