{
  "contractName": "K2",
  "abi": [
    {
      "constant": true,
      "inputs": [],
      "name": "DRAFT",
      "outputs": [
        {
          "name": "",
          "type": "uint256"
        }
      ],
      "payable": false,
      "stateMutability": "view",
      "type": "function"
    },
    {
      "constant": true,
      "inputs": [],
      "name": "EXPIRED",
      "outputs": [
        {
          "name": "",
          "type": "uint256"
        }
      ],
      "payable": false,
      "stateMutability": "view",
      "type": "function"
    },
    {
      "constant": true,
      "inputs": [
        {
          "name": "",
          "type": "uint256"
        }
      ],
      "name": "payments",
      "outputs": [
        {
          "name": "",
          "type": "uint256"
        }
      ],
      "payable": false,
      "stateMutability": "view",
      "type": "function"
    },
    {
      "constant": true,
      "inputs": [],
      "name": "serviceProvider",
      "outputs": [
        {
          "name": "",
          "type": "address"
        }
      ],
      "payable": false,
      "stateMutability": "view",
      "type": "function"
    },
    {
      "constant": true,
      "inputs": [],
      "name": "owner",
      "outputs": [
        {
          "name": "",
          "type": "address"
        }
      ],
      "payable": false,
      "stateMutability": "view",
      "type": "function"
    },
    {
      "constant": true,
      "inputs": [],
      "name": "state",
      "outputs": [
        {
          "name": "",
          "type": "uint256"
        }
      ],
      "payable": false,
      "stateMutability": "view",
      "type": "function"
    },
    {
      "constant": true,
      "inputs": [],
      "name": "ACTIVE",
      "outputs": [
        {
          "name": "",
          "type": "uint256"
        }
      ],
      "payable": false,
      "stateMutability": "view",
      "type": "function"
    },
    {
      "constant": true,
      "inputs": [],
      "name": "KR",
      "outputs": [
        {
          "name": "",
          "type": "uint256"
        }
      ],
      "payable": false,
      "stateMutability": "view",
      "type": "function"
    },
    {
      "constant": true,
      "inputs": [],
      "name": "TERMINATED",
      "outputs": [
        {
          "name": "",
          "type": "uint256"
        }
      ],
      "payable": false,
      "stateMutability": "view",
      "type": "function"
    },
    {
      "constant": true,
      "inputs": [],
      "name": "PAUSE",
      "outputs": [
        {
          "name": "",
          "type": "uint256"
        }
      ],
      "payable": false,
      "stateMutability": "view",
      "type": "function"
    },
    {
      "inputs": [
        {
          "name": "_owner",
          "type": "address"
        },
        {
          "name": "_serviceProvider",
          "type": "address"
        }
      ],
      "payable": false,
      "stateMutability": "nonpayable",
      "type": "constructor"
    },
    {
      "payable": true,
      "stateMutability": "payable",
      "type": "fallback"
    },
    {
      "constant": false,
      "inputs": [],
      "name": "activate",
      "outputs": [],
      "payable": false,
      "stateMutability": "nonpayable",
      "type": "function"
    },
    {
      "constant": false,
      "inputs": [
        {
          "name": "_month",
          "type": "uint256"
        }
      ],
      "name": "step",
      "outputs": [],
      "payable": false,
      "stateMutability": "nonpayable",
      "type": "function"
    },
    {
      "constant": true,
      "inputs": [],
      "name": "getState",
      "outputs": [
        {
          "name": "",
          "type": "uint256"
        }
      ],
      "payable": false,
      "stateMutability": "view",
      "type": "function"
    },
    {
      "constant": true,
      "inputs": [],
      "name": "countSubcontracts",
      "outputs": [
        {
          "name": "",
          "type": "uint256"
        }
      ],
      "payable": false,
      "stateMutability": "view",
      "type": "function"
    }
  ],
  "bytecode": "0x60806040526001805534801561001457600080fd5b50604051604080610aff833981018060405281019080805190602001909291908051906020019092919050505081806000806101000a81548173ffffffffffffffffffffffffffffffffffffffff021916908373ffffffffffffffffffffffffffffffffffffffff1602179055505080600360006101000a81548173ffffffffffffffffffffffffffffffffffffffff021916908373ffffffffffffffffffffffffffffffffffffffff160217905550600c6040519080825280602002602001820160405280156100f45781602001602082028038833980820191505090505b506002908051906020019061010a9291906102f1565b5064e8d4a51000617530026002600081548110151561012557fe5b906000526020600020018190555064e8d4a51000617530026002600181548110151561014d57fe5b906000526020600020018190555064e8d4a510006175300260028081548110151561017457fe5b906000526020600020018190555064e8d4a51000617530026002600381548110151561019c57fe5b906000526020600020018190555064e8d4a5100061753002600260048154811015156101c457fe5b906000526020600020018190555064e8d4a5100061753002600260058154811015156101ec57fe5b906000526020600020018190555064e8d4a51000617530026002600681548110151561021457fe5b906000526020600020018190555064e8d4a51000617530026002600781548110151561023c57fe5b906000526020600020018190555064e8d4a51000617530026002600881548110151561026457fe5b906000526020600020018190555064e8d4a51000617530026002600981548110151561028c57fe5b906000526020600020018190555064e8d4a51000617530026002600a8154811015156102b457fe5b906000526020600020018190555064e8d4a51000617530026002600b8154811015156102dc57fe5b90600052602060002001819055505050610363565b82805482825590600052602060002090810192821561032d579160200282015b8281111561032c578251825591602001919060010190610311565b5b50905061033a919061033e565b5090565b61036091905b8082111561035c576000816000905550600101610344565b5090565b90565b61078d806103726000396000f3006080604052600436106100d0576000357c0100000000000000000000000000000000000000000000000000000000900463ffffffff1680630762f731146100d25780630f15f4c0146100fd5780631865c57d146101145780633a1cde751461013f578063414ac85b1461016c57806387d81789146101975780638d69e95e146101d85780638da5cb5b1461022f5780639189a1cd14610286578063c19d93fb146102b1578063c90bd047146102dc578063dae1b07614610307578063dc04be8514610332578063e65fad971461035d575b005b3480156100de57600080fd5b506100e7610388565b6040518082815260200191505060405180910390f35b34801561010957600080fd5b5061011261038d565b005b34801561012057600080fd5b5061012961045b565b6040518082815260200191505060405180910390f35b34801561014b57600080fd5b5061016a60048036038101908080359060200190929190505050610465565b005b34801561017857600080fd5b506101816106c8565b6040518082815260200191505060405180910390f35b3480156101a357600080fd5b506101c2600480360381019080803590602001909291905050506106cd565b6040518082815260200191505060405180910390f35b3480156101e457600080fd5b506101ed6106f0565b604051808273ffffffffffffffffffffffffffffffffffffffff1673ffffffffffffffffffffffffffffffffffffffff16815260200191505060405180910390f35b34801561023b57600080fd5b50610244610716565b604051808273ffffffffffffffffffffffffffffffffffffffff1673ffffffffffffffffffffffffffffffffffffffff16815260200191505060405180910390f35b34801561029257600080fd5b5061029b61073b565b6040518082815260200191505060405180910390f35b3480156102bd57600080fd5b506102c6610743565b6040518082815260200191505060405180910390f35b3480156102e857600080fd5b506102f1610749565b6040518082815260200191505060405180910390f35b34801561031357600080fd5b5061031c61074e565b6040518082815260200191505060405180910390f35b34801561033e57600080fd5b50610347610757565b6040518082815260200191505060405180910390f35b34801561036957600080fd5b5061037261075c565b6040518082815260200191505060405180910390f35b600181565b3373ffffffffffffffffffffffffffffffffffffffff166000809054906101000a900473ffffffffffffffffffffffffffffffffffffffff1673ffffffffffffffffffffffffffffffffffffffff16141515610451576040517f08c379a00000000000000000000000000000000000000000000000000000000081526004018080602001828103825260188152602001807f6d73672e73656e64657220776173206e6f74206f776e6572000000000000000081525060200191505060405180910390fd5b6002600181905550565b6000600154905090565b600060026001541415156104e1576040517f08c379a000000000000000000000000000000000000000000000000000000000815260040180806020018281038252601c8152602001807f63757272656e7420737461746520776173206e6f74204143544956450000000081525060200191505060405180910390fd5b6002828154811015156104f057fe5b90600052602060002001549050600081111515610575576040517f08c379a000000000000000000000000000000000000000000000000000000000815260040180806020018281038252601b8152602001807f4e6f7468696e6720746f20646f2c20616d6f756e74207761732030000000000081525060200191505060405180910390fd5b3073ffffffffffffffffffffffffffffffffffffffff1631811115151561062a576040517f08c379a00000000000000000000000000000000000000000000000000000000081526004018080602001828103825260238152602001807f54686520636f6e747261637420697473656c66206973206f7574206f66206d6f81526020017f6e6579000000000000000000000000000000000000000000000000000000000081525060400191505060405180910390fd5b600360009054906101000a900473ffffffffffffffffffffffffffffffffffffffff1673ffffffffffffffffffffffffffffffffffffffff166108fc829081150290604051600060405180830381858888f19350505050158015610692573d6000803e3d6000fd5b5060006002838154811015156106a457fe5b9060005260206000200181905550600b8214156106c45760046001819055505b5050565b600481565b6002818154811015156106dc57fe5b906000526020600020016000915090505481565b600360009054906101000a900473ffffffffffffffffffffffffffffffffffffffff1681565b6000809054906101000a900473ffffffffffffffffffffffffffffffffffffffff1681565b600080905090565b60015481565b600281565b64e8d4a5100081565b600381565b6005815600a165627a7a723058200f6b544ed81a6d0becf76b289f6e3fe4188e973b1d91c76dc26d8021d9a3064d0029",
  "source": "pragma solidity ^0.4.0;\n\nimport \"./Owned.sol\";\nimport \"./IHasSubcontracts.sol\";\nimport \"./CommonStateNames.sol\";\nimport \"./ICommonState.sol\";\nimport \"./IAccessSubcontracts.sol\";\nimport \"./KCommon.sol\";\n\ncontract K2 is ICommonState, IHasSubcontracts, CommonStateNames, KCommon, Owned {\n\n    uint public state = DRAFT; // defaults to draft\n\n    uint[] public payments;\n\n    // the address where the price payments goes to\n    address public serviceProvider;\n\n    modifier serviceProviderOnly {\n        require(msg.sender == serviceProvider);\n        _;\n    }\n\n    constructor(address _owner, address _serviceProvider)\n        Owned(_owner) public {\n        serviceProvider = _serviceProvider;\n        payments = new uint[](12);\n\n        payments[0] =  30000 * KR;  // jan 2018\n        payments[1] =  30000 * KR;  // feb 2018\n        payments[2] =  30000 * KR;  // mar 2018\n        payments[3] =  30000 * KR;  // apr 2018\n        payments[4] =  30000 * KR;  // may 2018\n        payments[5] =  30000 * KR;  // jun 2018\n        payments[6] =  30000 * KR;  // jul 2018\n        payments[7] =  30000 * KR;  // aug 2018\n        payments[8] =  30000 * KR;  // sep 2018\n        payments[9] =  30000 * KR;  // oct 2018\n        payments[10] = 30000 * KR; // nov 2018\n        payments[11] = 30000 * KR; // dec 2018\n    }\n\n    // state\n    function activate() external ownerOnly {\n        state = ACTIVE;\n    }\n\n    function step(uint _month) external {\n        require(state == ACTIVE, \"current state was not ACTIVE\");\n        uint amountForMonth = payments[_month];\n        require(amountForMonth > 0, \"Nothing to do, amount was 0\");\n        require(amountForMonth <= this.balance, \"The contract itself is out of money\");\n        serviceProvider.transfer(amountForMonth);\n        payments[_month] = 0;\n\n        if (_month == 11) {\n            state = EXPIRED;\n        }\n    }\n\n    // the contract can hold ether\n    function () payable {\n    }\n\n    // implementation of ICommonState\n    function getState() external constant returns(uint) {\n        return state;\n    }\n\n    // IHasSubcontracts\n    function countSubcontracts() external constant returns(uint) {\n        return 0;\n    }\n}\n",
  "sourcePath": "/Users/julian/work-git/multisig-contracts/ethereum/contracts/K2.sol",
  "compiler": {
    "name": "solc",
    "version": "0.4.24+commit.e67f0147.Emscripten.clang"
  },
  "schemaVersion": "2.0.1",
  "updatedAt": "2018-12-06T07:33:53.889Z"
}