{
  "contractName": "K3",
  "abi": [
    {
      "constant": true,
      "inputs": [],
      "name": "DRAFT",
      "outputs": [
        {
          "name": "",
          "type": "uint256"
        }
      ],
      "payable": false,
      "stateMutability": "view",
      "type": "function"
    },
    {
      "constant": true,
      "inputs": [
        {
          "name": "",
          "type": "uint256"
        }
      ],
      "name": "payments",
      "outputs": [
        {
          "name": "",
          "type": "uint256"
        }
      ],
      "payable": false,
      "stateMutability": "view",
      "type": "function"
    },
    {
      "constant": true,
      "inputs": [],
      "name": "serviceProvider",
      "outputs": [
        {
          "name": "",
          "type": "address"
        }
      ],
      "payable": false,
      "stateMutability": "view",
      "type": "function"
    },
    {
      "constant": true,
      "inputs": [],
      "name": "owner",
      "outputs": [
        {
          "name": "",
          "type": "address"
        }
      ],
      "payable": false,
      "stateMutability": "view",
      "type": "function"
    },
    {
      "constant": true,
      "inputs": [],
      "name": "state",
      "outputs": [
        {
          "name": "",
          "type": "uint256"
        }
      ],
      "payable": false,
      "stateMutability": "view",
      "type": "function"
    },
    {
      "constant": true,
      "inputs": [],
      "name": "ACTIVE",
      "outputs": [
        {
          "name": "",
          "type": "uint256"
        }
      ],
      "payable": false,
      "stateMutability": "view",
      "type": "function"
    },
    {
      "constant": true,
      "inputs": [],
      "name": "TERMINATED",
      "outputs": [
        {
          "name": "",
          "type": "uint256"
        }
      ],
      "payable": false,
      "stateMutability": "view",
      "type": "function"
    },
    {
      "inputs": [
        {
          "name": "_owner",
          "type": "address"
        },
        {
          "name": "_serviceProvider",
          "type": "address"
        }
      ],
      "payable": false,
      "stateMutability": "nonpayable",
      "type": "constructor"
    },
    {
      "payable": true,
      "stateMutability": "payable",
      "type": "fallback"
    },
    {
      "constant": false,
      "inputs": [],
      "name": "activate",
      "outputs": [],
      "payable": false,
      "stateMutability": "nonpayable",
      "type": "function"
    },
    {
      "constant": false,
      "inputs": [
        {
          "name": "_month",
          "type": "uint256"
        }
      ],
      "name": "step",
      "outputs": [],
      "payable": false,
      "stateMutability": "nonpayable",
      "type": "function"
    },
    {
      "constant": true,
      "inputs": [],
      "name": "getState",
      "outputs": [
        {
          "name": "",
          "type": "uint256"
        }
      ],
      "payable": false,
      "stateMutability": "view",
      "type": "function"
    },
    {
      "constant": true,
      "inputs": [],
      "name": "countSubcontracts",
      "outputs": [
        {
          "name": "",
          "type": "uint256"
        }
      ],
      "payable": false,
      "stateMutability": "view",
      "type": "function"
    }
  ],
  "bytecode": "0x60806040526001805534801561001457600080fd5b50604051604080610943833981018060405281019080805190602001909291908051906020019092919050505081806000806101000a81548173ffffffffffffffffffffffffffffffffffffffff021916908373ffffffffffffffffffffffffffffffffffffffff1602179055505080600360006101000a81548173ffffffffffffffffffffffffffffffffffffffff021916908373ffffffffffffffffffffffffffffffffffffffff16021790555060036040519080825280602002602001820160405280156100f45781602001602082028038833980820191505090505b506002908051906020019061010a929190610183565b506611c37937e080006002600081548110151561012357fe5b90600052602060002001819055506611c37937e080006002600181548110151561014957fe5b90600052602060002001819055506611c37937e0800060028081548110151561016e57fe5b906000526020600020018190555050506101f5565b8280548282559060005260206000209081019282156101bf579160200282015b828111156101be5782518255916020019190600101906101a3565b5b5090506101cc91906101d0565b5090565b6101f291905b808211156101ee5760008160009055506001016101d6565b5090565b90565b61073f806102046000396000f3006080604052600436106100af576000357c0100000000000000000000000000000000000000000000000000000000900463ffffffff1680630762f731146100b15780630f15f4c0146100dc5780631865c57d146100f35780633a1cde751461011e57806387d817891461014b5780638d69e95e1461018c5780638da5cb5b146101e35780639189a1cd1461023a578063c19d93fb14610265578063c90bd04714610290578063dc04be85146102bb575b005b3480156100bd57600080fd5b506100c66102e6565b6040518082815260200191505060405180910390f35b3480156100e857600080fd5b506100f16102eb565b005b3480156100ff57600080fd5b50610108610432565b6040518082815260200191505060405180910390f35b34801561012a57600080fd5b506101496004803603810190808035906020019092919050505061043c565b005b34801561015757600080fd5b506101766004803603810190808035906020019092919050505061068d565b6040518082815260200191505060405180910390f35b34801561019857600080fd5b506101a16106b0565b604051808273ffffffffffffffffffffffffffffffffffffffff1673ffffffffffffffffffffffffffffffffffffffff16815260200191505060405180910390f35b3480156101ef57600080fd5b506101f86106d6565b604051808273ffffffffffffffffffffffffffffffffffffffff1673ffffffffffffffffffffffffffffffffffffffff16815260200191505060405180910390f35b34801561024657600080fd5b5061024f6106fb565b6040518082815260200191505060405180910390f35b34801561027157600080fd5b5061027a610703565b6040518082815260200191505060405180910390f35b34801561029c57600080fd5b506102a5610709565b6040518082815260200191505060405180910390f35b3480156102c757600080fd5b506102d061070e565b6040518082815260200191505060405180910390f35b600181565b3373ffffffffffffffffffffffffffffffffffffffff166000809054906101000a900473ffffffffffffffffffffffffffffffffffffffff1673ffffffffffffffffffffffffffffffffffffffff161415156103af576040517f08c379a00000000000000000000000000000000000000000000000000000000081526004018080602001828103825260188152602001807f6d73672e73656e64657220776173206e6f74206f776e6572000000000000000081525060200191505060405180910390fd5b60018054141515610428576040517f08c379a000000000000000000000000000000000000000000000000000000000815260040180806020018281038252601b8152602001807f63757272656e7420737461746520776173206e6f74204452414654000000000081525060200191505060405180910390fd5b6002600181905550565b6000600154905090565b600060026001541415156104b8576040517f08c379a000000000000000000000000000000000000000000000000000000000815260040180806020018281038252601c8152602001807f63757272656e7420737461746520776173206e6f74204143544956450000000081525060200191505060405180910390fd5b6002828154811015156104c757fe5b9060005260206000200154905060008111151561054c576040517f08c379a000000000000000000000000000000000000000000000000000000000815260040180806020018281038252601b8152602001807f4e6f7468696e6720746f20646f2c20616d6f756e74207761732030000000000081525060200191505060405180910390fd5b3073ffffffffffffffffffffffffffffffffffffffff16318111151515610601576040517f08c379a00000000000000000000000000000000000000000000000000000000081526004018080602001828103825260238152602001807f54686520636f6e747261637420697473656c66206973206f7574206f66206d6f81526020017f6e6579000000000000000000000000000000000000000000000000000000000081525060400191505060405180910390fd5b600360009054906101000a900473ffffffffffffffffffffffffffffffffffffffff1673ffffffffffffffffffffffffffffffffffffffff166108fc829081150290604051600060405180830381858888f19350505050158015610669573d6000803e3d6000fd5b50600060028381548110151561067b57fe5b90600052602060002001819055505050565b60028181548110151561069c57fe5b906000526020600020016000915090505481565b600360009054906101000a900473ffffffffffffffffffffffffffffffffffffffff1681565b6000809054906101000a900473ffffffffffffffffffffffffffffffffffffffff1681565b600080905090565b60015481565b600281565b6003815600a165627a7a723058208ef3bf887360be83d580956f14865334eb9198994dd98eaa823aeb84e48cf2cd0029",
  "source": "pragma solidity ^0.4.0;\n\nimport \"./Owned.sol\";\nimport \"./IHasSubcontracts.sol\";\nimport \"./CommonStateNames.sol\";\nimport \"./ICommonState.sol\";\nimport \"./IAccessSubcontracts.sol\";\n\ncontract K3 is ICommonState, IHasSubcontracts, CommonStateNames, Owned {\n\n    uint public state = DRAFT; // defaults to draft\n\n    uint[] public payments;\n\n    // the address where the price payments goes to\n    address public serviceProvider;\n\n    modifier serviceProviderOnly {\n        require(msg.sender == serviceProvider);\n        _;\n    }\n\n    constructor(address _owner, address _serviceProvider)\n        Owned(_owner) public {\n        serviceProvider = _serviceProvider;\n        payments = new uint[](3);\n\n        payments[0] = 5000 szabo;  // jan 2018\n        payments[1] = 5000 szabo;  // feb 2018\n        payments[2] = 5000 szabo;  // mar 2018\n    }\n\n    // the contract can hold ether\n    function () payable {\n    }\n\n    // state\n    function activate() external ownerOnly {\n        require(state == DRAFT, \"current state was not DRAFT\");\n        state = ACTIVE;\n    }\n\n    function step(uint _month) external {\n        require(state == ACTIVE, \"current state was not ACTIVE\");\n        uint amountForMonth = payments[_month];\n        require(amountForMonth > 0, \"Nothing to do, amount was 0\");\n        require(amountForMonth <= this.balance, \"The contract itself is out of money\");\n        serviceProvider.transfer(amountForMonth);\n        payments[_month] = 0;\n    }\n\n\n    // implementation of ICommonState\n    function getState() external constant returns(uint) {\n        return state;\n    }\n\n    // IHasSubcontracts\n    function countSubcontracts() external constant returns(uint) {\n        return 0;\n    }\n\n}\n",
  "sourcePath": "/Users/julian/work-git/multisig-contracts/ethereum/contracts/K3.sol",
  "compiler": {
    "name": "solc",
    "version": "0.4.24+commit.e67f0147.Emscripten.clang"
  },
  "schemaVersion": "2.0.1",
  "updatedAt": "2018-11-29T13:45:53.952Z"
}