{
  "contractName": "K4",
  "abi": [
    {
      "constant": true,
      "inputs": [],
      "name": "DRAFT",
      "outputs": [
        {
          "name": "",
          "type": "uint256"
        }
      ],
      "payable": false,
      "stateMutability": "view",
      "type": "function"
    },
    {
      "constant": true,
      "inputs": [
        {
          "name": "",
          "type": "uint256"
        }
      ],
      "name": "payments",
      "outputs": [
        {
          "name": "",
          "type": "uint256"
        }
      ],
      "payable": false,
      "stateMutability": "view",
      "type": "function"
    },
    {
      "constant": true,
      "inputs": [],
      "name": "serviceProvider",
      "outputs": [
        {
          "name": "",
          "type": "address"
        }
      ],
      "payable": false,
      "stateMutability": "view",
      "type": "function"
    },
    {
      "constant": true,
      "inputs": [],
      "name": "owner",
      "outputs": [
        {
          "name": "",
          "type": "address"
        }
      ],
      "payable": false,
      "stateMutability": "view",
      "type": "function"
    },
    {
      "constant": true,
      "inputs": [],
      "name": "state",
      "outputs": [
        {
          "name": "",
          "type": "uint256"
        }
      ],
      "payable": false,
      "stateMutability": "view",
      "type": "function"
    },
    {
      "constant": true,
      "inputs": [],
      "name": "ACTIVE",
      "outputs": [
        {
          "name": "",
          "type": "uint256"
        }
      ],
      "payable": false,
      "stateMutability": "view",
      "type": "function"
    },
    {
      "constant": true,
      "inputs": [],
      "name": "TERMINATED",
      "outputs": [
        {
          "name": "",
          "type": "uint256"
        }
      ],
      "payable": false,
      "stateMutability": "view",
      "type": "function"
    },
    {
      "inputs": [
        {
          "name": "_owner",
          "type": "address"
        },
        {
          "name": "_serviceProvider",
          "type": "address"
        }
      ],
      "payable": false,
      "stateMutability": "nonpayable",
      "type": "constructor"
    },
    {
      "payable": true,
      "stateMutability": "payable",
      "type": "fallback"
    },
    {
      "constant": false,
      "inputs": [],
      "name": "activate",
      "outputs": [],
      "payable": false,
      "stateMutability": "nonpayable",
      "type": "function"
    },
    {
      "constant": false,
      "inputs": [
        {
          "name": "_month",
          "type": "uint256"
        }
      ],
      "name": "step",
      "outputs": [],
      "payable": false,
      "stateMutability": "nonpayable",
      "type": "function"
    },
    {
      "constant": false,
      "inputs": [
        {
          "name": "_subcontract",
          "type": "address"
        }
      ],
      "name": "add",
      "outputs": [],
      "payable": false,
      "stateMutability": "nonpayable",
      "type": "function"
    },
    {
      "constant": true,
      "inputs": [
        {
          "name": "_index",
          "type": "uint256"
        }
      ],
      "name": "getSubcontract",
      "outputs": [
        {
          "name": "",
          "type": "address"
        }
      ],
      "payable": false,
      "stateMutability": "view",
      "type": "function"
    },
    {
      "constant": true,
      "inputs": [],
      "name": "getState",
      "outputs": [
        {
          "name": "",
          "type": "uint256"
        }
      ],
      "payable": false,
      "stateMutability": "view",
      "type": "function"
    },
    {
      "constant": true,
      "inputs": [],
      "name": "countSubcontracts",
      "outputs": [
        {
          "name": "",
          "type": "uint256"
        }
      ],
      "payable": false,
      "stateMutability": "view",
      "type": "function"
    }
  ],
  "bytecode": "0x60806040526001805534801561001457600080fd5b50604051604080610bf3833981018060405281019080805190602001909291908051906020019092919050505081806000806101000a81548173ffffffffffffffffffffffffffffffffffffffff021916908373ffffffffffffffffffffffffffffffffffffffff1602179055505080600360006101000a81548173ffffffffffffffffffffffffffffffffffffffff021916908373ffffffffffffffffffffffffffffffffffffffff16021790555060036040519080825280602002602001820160405280156100f45781602001602082028038833980820191505090505b506002908051906020019061010a929190610183565b506611c37937e080006002600081548110151561012357fe5b90600052602060002001819055506611c37937e080006002600181548110151561014957fe5b90600052602060002001819055506611c37937e0800060028081548110151561016e57fe5b906000526020600020018190555050506101f5565b8280548282559060005260206000209081019282156101bf579160200282015b828111156101be5782518255916020019190600101906101a3565b5b5090506101cc91906101d0565b5090565b6101f291905b808211156101ee5760008160009055506001016101d6565b5090565b90565b6109ef806102046000396000f3006080604052600436106100c5576000357c0100000000000000000000000000000000000000000000000000000000900463ffffffff1680630762f731146100c75780630a3b0a4f146100f25780630f15f4c0146101355780631865c57d1461014c5780633a1cde751461017757806387d81789146101a45780638d69e95e146101e55780638da5cb5b1461023c5780639189a1cd14610293578063afe07dda146102be578063c19d93fb1461032b578063c90bd04714610356578063dc04be8514610381575b005b3480156100d357600080fd5b506100dc6103ac565b6040518082815260200191505060405180910390f35b3480156100fe57600080fd5b50610133600480360381019080803573ffffffffffffffffffffffffffffffffffffffff1690602001909291905050506103b1565b005b34801561014157600080fd5b5061014a61049e565b005b34801561015857600080fd5b506101616105e5565b6040518082815260200191505060405180910390f35b34801561018357600080fd5b506101a2600480360381019080803590602001909291905050506105ef565b005b3480156101b057600080fd5b506101cf6004803603810190808035906020019092919050505061090f565b6040518082815260200191505060405180910390f35b3480156101f157600080fd5b506101fa610932565b604051808273ffffffffffffffffffffffffffffffffffffffff1673ffffffffffffffffffffffffffffffffffffffff16815260200191505060405180910390f35b34801561024857600080fd5b50610251610958565b604051808273ffffffffffffffffffffffffffffffffffffffff1673ffffffffffffffffffffffffffffffffffffffff16815260200191505060405180910390f35b34801561029f57600080fd5b506102a861097d565b6040518082815260200191505060405180910390f35b3480156102ca57600080fd5b506102e960048036038101908080359060200190929190505050610987565b604051808273ffffffffffffffffffffffffffffffffffffffff1673ffffffffffffffffffffffffffffffffffffffff16815260200191505060405180910390f35b34801561033757600080fd5b506103406109b3565b6040518082815260200191505060405180910390f35b34801561036257600080fd5b5061036b6109b9565b6040518082815260200191505060405180910390f35b34801561038d57600080fd5b506103966109be565b6040518082815260200191505060405180910390f35b600181565b600360015414151515610452576040517f08c379a00000000000000000000000000000000000000000000000000000000081526004018080602001828103825260348152602001807f7374617465206d757374206e6f74206265205445524d494e415445442077686581526020017f6e20616464696e6720737562636f6e747261637400000000000000000000000081525060400191505060405180910390fd5b600160058190555080600460006101000a81548173ffffffffffffffffffffffffffffffffffffffff021916908373ffffffffffffffffffffffffffffffffffffffff16021790555050565b3373ffffffffffffffffffffffffffffffffffffffff166000809054906101000a900473ffffffffffffffffffffffffffffffffffffffff1673ffffffffffffffffffffffffffffffffffffffff16141515610562576040517f08c379a00000000000000000000000000000000000000000000000000000000081526004018080602001828103825260188152602001807f6d73672e73656e64657220776173206e6f74206f776e6572000000000000000081525060200191505060405180910390fd5b600180541415156105db576040517f08c379a000000000000000000000000000000000000000000000000000000000815260040180806020018281038252601b8152602001807f63757272656e7420737461746520776173206e6f74204452414654000000000081525060200191505060405180910390fd5b6002600181905550565b6000600154905090565b6000600260015414151561066b576040517f08c379a000000000000000000000000000000000000000000000000000000000815260040180806020018281038252601c8152602001807f63757272656e7420737461746520776173206e6f74204143544956450000000081525060200191505060405180910390fd5b60028281548110151561067a57fe5b906000526020600020015490506000811115156106ff576040517f08c379a000000000000000000000000000000000000000000000000000000000815260040180806020018281038252601b8152602001807f4e6f7468696e6720746f20646f2c20616d6f756e74207761732030000000000081525060200191505060405180910390fd5b3073ffffffffffffffffffffffffffffffffffffffff163181111515156107b4576040517f08c379a00000000000000000000000000000000000000000000000000000000081526004018080602001828103825260238152602001807f54686520636f6e747261637420697473656c66206973206f7574206f66206d6f81526020017f6e6579000000000000000000000000000000000000000000000000000000000081525060400191505060405180910390fd5b6002600460009054906101000a900473ffffffffffffffffffffffffffffffffffffffff1673ffffffffffffffffffffffffffffffffffffffff16631865c57d6040518163ffffffff167c0100000000000000000000000000000000000000000000000000000000028152600401602060405180830381600087803b15801561083c57600080fd5b505af1158015610850573d6000803e3d6000fd5b505050506040513d602081101561086657600080fd5b810190808051906020019092919050505014151561088357600080fd5b600360009054906101000a900473ffffffffffffffffffffffffffffffffffffffff1673ffffffffffffffffffffffffffffffffffffffff166108fc829081150290604051600060405180830381858888f193505050501580156108eb573d6000803e3d6000fd5b5060006002838154811015156108fd57fe5b90600052602060002001819055505050565b60028181548110151561091e57fe5b906000526020600020016000915090505481565b600360009054906101000a900473ffffffffffffffffffffffffffffffffffffffff1681565b6000809054906101000a900473ffffffffffffffffffffffffffffffffffffffff1681565b6000600554905090565b6000600460009054906101000a900473ffffffffffffffffffffffffffffffffffffffff169050919050565b60015481565b600281565b6003815600a165627a7a7230582043adcb905b304199f4a08c50e198a37d5f43ded731543421cd24d4093a71af420029",
  "source": "pragma solidity ^0.4.0;\n\nimport \"./Owned.sol\";\nimport \"./IHasSubcontracts.sol\";\nimport \"./CommonStateNames.sol\";\nimport \"./ICommonState.sol\";\nimport \"./IAccessSubcontracts.sol\";\n\ncontract K4 is ICommonState, IHasSubcontracts, IAccessSubcontracts, CommonStateNames, Owned {\n\n    uint public state = DRAFT; // defaults to draft\n\n    uint[] public payments;\n\n    // the address where the price payments goes to\n    address public serviceProvider;\n\n    ICommonState subcontract;\n    uint numSubcontracts;\n\n    constructor(address _owner, address _serviceProvider)\n        Owned(_owner) public {\n        serviceProvider = _serviceProvider;\n        payments = new uint[](3);\n\n        payments[0] = 5000 szabo;  // jan 2018\n        payments[1] = 5000 szabo;  // feb 2018\n        payments[2] = 5000 szabo;  // mar 2018\n    }\n\n    modifier serviceProviderOnly {\n        require(msg.sender == serviceProvider, \"sender was not serviceProvider\");\n        _;\n    }\n\n    // state\n    function activate() external ownerOnly {\n        require(state == DRAFT, \"current state was not DRAFT\");\n        state = ACTIVE;\n    }\n\n    function step(uint _month) external {\n        require(state == ACTIVE, \"current state was not ACTIVE\");\n\n        uint amountForMonth = payments[_month];\n        require(amountForMonth > 0, \"Nothing to do, amount was 0\");\n        require(amountForMonth <= this.balance, \"The contract itself is out of money\");\n\n        // our subcontract must not be terminated\n        require(subcontract.getState() == ACTIVE);\n\n        serviceProvider.transfer(amountForMonth);\n        payments[_month] = 0;\n    }\n\n    // the contract can hold ether\n    function () payable {\n    }\n\n    // IAccessSubcontracts\n    function add(ICommonState _subcontract) external { // serviceProviderOnly ?\n        require(state != TERMINATED, \"state must not be TERMINATED when adding subcontract\");\n        numSubcontracts = 1;\n        subcontract = ICommonState(_subcontract);\n    }\n\n    function getSubcontract(uint _index) external constant returns(address) {\n        return subcontract;\n    }\n\n    // implementation of ICommonState\n    function getState() external constant returns(uint) {\n        return state;\n    }\n\n    // IHasSubcontracts\n    function countSubcontracts() external constant returns(uint) {\n        return numSubcontracts;\n    }\n\n}\n",
  "sourcePath": "/Users/julian/work-git/multisig-contracts/ethereum/contracts/K4.sol",
  "compiler": {
    "name": "solc",
    "version": "0.4.24+commit.e67f0147.Emscripten.clang"
  },
  "schemaVersion": "2.0.1",
  "updatedAt": "2018-11-29T13:35:46.840Z"
}