{
  "contractName": "KCommon",
  "abi": [
    {
      "constant": true,
      "inputs": [],
      "name": "KR",
      "outputs": [
        {
          "name": "",
          "type": "uint256"
        }
      ],
      "payable": false,
      "stateMutability": "view",
      "type": "function"
    }
  ],
  "bytecode": "0x6080604052348015600f57600080fd5b5060a18061001e6000396000f300608060405260043610603f576000357c0100000000000000000000000000000000000000000000000000000000900463ffffffff168063dae1b076146044575b600080fd5b348015604f57600080fd5b506056606c565b6040518082815260200191505060405180910390f35b64e8d4a51000815600a165627a7a7230582021e2b8c8055db657b6c460d899cf4fad6b8a20352a6025ac64c8df16621752320029",
  "source": "pragma solidity ^0.4.0;\n\ncontract KCommon {\n    uint constant public KR = 1 szabo; // common denominator\n}",
  "sourcePath": "/Users/julian/work-git/multisig-contracts/ethereum/contracts/KCommon.sol",
  "compiler": {
    "name": "solc",
    "version": "0.4.24+commit.e67f0147.Emscripten.clang"
  },
  "schemaVersion": "2.0.1",
  "updatedAt": "2018-12-10T10:35:28.165Z"
}