{
  "contractName": "SimpleMultiSig",
  "abi": [
    {
      "constant": true,
      "inputs": [
        {
          "name": "",
          "type": "address"
        }
      ],
      "name": "isOwner",
      "outputs": [
        {
          "name": "",
          "type": "bool"
        }
      ],
      "payable": false,
      "stateMutability": "view",
      "type": "function"
    },
    {
      "constant": true,
      "inputs": [],
      "name": "threshold",
      "outputs": [
        {
          "name": "",
          "type": "uint256"
        }
      ],
      "payable": false,
      "stateMutability": "view",
      "type": "function"
    },
    {
      "constant": true,
      "inputs": [
        {
          "name": "",
          "type": "uint256"
        }
      ],
      "name": "ownersArr",
      "outputs": [
        {
          "name": "",
          "type": "address"
        }
      ],
      "payable": false,
      "stateMutability": "view",
      "type": "function"
    },
    {
      "constant": true,
      "inputs": [],
      "name": "nonce",
      "outputs": [
        {
          "name": "",
          "type": "uint256"
        }
      ],
      "payable": false,
      "stateMutability": "view",
      "type": "function"
    },
    {
      "inputs": [
        {
          "name": "threshold_",
          "type": "uint256"
        },
        {
          "name": "owners_",
          "type": "address[]"
        }
      ],
      "payable": false,
      "stateMutability": "nonpayable",
      "type": "constructor"
    },
    {
      "payable": true,
      "stateMutability": "payable",
      "type": "fallback"
    },
    {
      "constant": false,
      "inputs": [
        {
          "name": "sigV",
          "type": "uint8[]"
        },
        {
          "name": "sigR",
          "type": "bytes32[]"
        },
        {
          "name": "sigS",
          "type": "bytes32[]"
        },
        {
          "name": "destination",
          "type": "address"
        },
        {
          "name": "value",
          "type": "uint256"
        },
        {
          "name": "data",
          "type": "bytes"
        }
      ],
      "name": "execute",
      "outputs": [],
      "payable": false,
      "stateMutability": "nonpayable",
      "type": "function"
    },
    {
      "constant": false,
      "inputs": [
        {
          "name": "sigV",
          "type": "uint8"
        },
        {
          "name": "sigR",
          "type": "bytes32"
        },
        {
          "name": "sigS",
          "type": "bytes32"
        },
        {
          "name": "destination",
          "type": "address"
        },
        {
          "name": "value",
          "type": "uint256"
        },
        {
          "name": "data",
          "type": "bytes"
        }
      ],
      "name": "testRecover",
      "outputs": [
        {
          "name": "recovered",
          "type": "address"
        }
      ],
      "payable": false,
      "stateMutability": "nonpayable",
      "type": "function"
    }
  ],
  "bytecode": "0x60806040523480156200001157600080fd5b5060405162001258380380620012588339810180604052810190808051906020019092919080518201929190505050600080600a835111151515620000be576040517f08c379a000000000000000000000000000000000000000000000000000000000815260040180806020018281038252601b8152602001807f6f776e657273206d757374206265206c657373207468616e203130000000000081525060200191505060405180910390fd5b825184111515156200015e576040517f08c379a00000000000000000000000000000000000000000000000000000000081526004018080602001828103825260338152602001807f7468726573686f6c64206d757374206e6f74206265206772656174657220746881526020017f616e206e756d626572206f66206f776e6572730000000000000000000000000081525060400191505060405180910390fd5b60008410151515620001d8576040517f08c379a000000000000000000000000000000000000000000000000000000000815260040180806020018281038252601e8152602001807f7468726573686f6c64732068617320746f206265206f72206c6172676572000081525060200191505060405180910390fd5b60009150600090505b825181101562000340578173ffffffffffffffffffffffffffffffffffffffff1683828151811015156200021157fe5b9060200190602002015173ffffffffffffffffffffffffffffffffffffffff16111515620002a7576040517f08c379a000000000000000000000000000000000000000000000000000000000815260040180806020018281038252601c8152602001807f70726f626c656d2077697468206f72646572206f66206f776e6572730000000081525060200191505060405180910390fd5b6001600260008584815181101515620002bc57fe5b9060200190602002015173ffffffffffffffffffffffffffffffffffffffff1673ffffffffffffffffffffffffffffffffffffffff16815260200190815260200160002060006101000a81548160ff02191690831515021790555082818151811015156200032657fe5b9060200190602002015191508080600101915050620001e1565b8260039080519060200190620003589291906200036a565b5083600181905550505050506200043f565b828054828255906000526020600020908101928215620003e6579160200282015b82811115620003e55782518260006101000a81548173ffffffffffffffffffffffffffffffffffffffff021916908373ffffffffffffffffffffffffffffffffffffffff160217905550916020019190600101906200038b565b5b509050620003f59190620003f9565b5090565b6200043c91905b808211156200043857600081816101000a81549073ffffffffffffffffffffffffffffffffffffffff02191690555060010162000400565b5090565b90565b610e09806200044f6000396000f300608060405260043610610078576000357c0100000000000000000000000000000000000000000000000000000000900463ffffffff1680632f54bf6e1461007a57806342cde4e8146100d5578063aa5df9e214610100578063affed0e01461016d578063dc22c6ca14610198578063f12d394f14610294575b005b34801561008657600080fd5b506100bb600480360381019080803573ffffffffffffffffffffffffffffffffffffffff1690602001909291905050506103f0565b604051808215151515815260200191505060405180910390f35b3480156100e157600080fd5b506100ea610410565b6040518082815260200191505060405180910390f35b34801561010c57600080fd5b5061012b60048036038101908080359060200190929190505050610416565b604051808273ffffffffffffffffffffffffffffffffffffffff1673ffffffffffffffffffffffffffffffffffffffff16815260200191505060405180910390f35b34801561017957600080fd5b50610182610454565b6040518082815260200191505060405180910390f35b3480156101a457600080fd5b50610252600480360381019080803560ff16906020019092919080356000191690602001909291908035600019169060200190929190803573ffffffffffffffffffffffffffffffffffffffff16906020019092919080359060200190929190803590602001908201803590602001908080601f016020809104026020016040519081016040528093929190818152602001838380828437820191505050505050919291929050505061045a565b604051808273ffffffffffffffffffffffffffffffffffffffff1673ffffffffffffffffffffffffffffffffffffffff16815260200191505060405180910390f35b3480156102a057600080fd5b506103ee600480360381019080803590602001908201803590602001908080602002602001604051908101604052809392919081815260200183836020028082843782019150505050505091929192908035906020019082018035906020019080806020026020016040519081016040528093929190818152602001838360200280828437820191505050505050919291929080359060200190820180359060200190808060200260200160405190810160405280939291908181526020018383602002808284378201915050505050509192919290803573ffffffffffffffffffffffffffffffffffffffff16906020019092919080359060200190929190803590602001908201803590602001908080601f01602080910402602001604051908101604052809392919081815260200183838082843782019150505050505091929192905050506106c6565b005b60026020528060005260406000206000915054906101000a900460ff1681565b60015481565b60038181548110151561042557fe5b906000526020600020016000915054906101000a900473ffffffffffffffffffffffffffffffffffffffff1681565b60005481565b60008060197f01000000000000000000000000000000000000000000000000000000000000000260007f0100000000000000000000000000000000000000000000000000000000000000023087878760005460405180887effffffffffffffffffffffffffffffffffffffffffffffffffffffffffffff19167effffffffffffffffffffffffffffffffffffffffffffffffffffffffffffff19168152600101877effffffffffffffffffffffffffffffffffffffffffffffffffffffffffffff19167effffffffffffffffffffffffffffffffffffffffffffffffffffffffffffff191681526001018673ffffffffffffffffffffffffffffffffffffffff1673ffffffffffffffffffffffffffffffffffffffff166c010000000000000000000000000281526014018573ffffffffffffffffffffffffffffffffffffffff1673ffffffffffffffffffffffffffffffffffffffff166c0100000000000000000000000002815260140184815260200183805190602001908083835b6020831015156105fd57805182526020820191506020810190506020830392506105d8565b6001836020036101000a03801982511681845116808217855250505050505090500182815260200197505050505050505060405180910390209050600181898989604051600081526020016040526040518085600019166000191681526020018460ff1660ff1681526020018360001916600019168152602001826000191660001916815260200194505050505060206040516020810390808403906000865af11580156106af573d6000803e3d6000fd5b505050602060405103519150509695505050505050565b60008060008060006001548a5114151561076e576040517f08c379a00000000000000000000000000000000000000000000000000000000081526004018080602001828103825260328152602001807f6e756d626572206f6620696e707574207369676e61747572657320646f65736e81526020017f2774206d61746368207468726573686f6c64000000000000000000000000000081525060400191505060405180910390fd5b88518a5114801561078057508a518a51145b15156107f4576040517f08c379a000000000000000000000000000000000000000000000000000000000815260040180806020018281038252601f8152602001807f6c656e67746873206f6620562c20522c2053206973206e6f7420657175616c0081525060200191505060405180910390fd5b60197f01000000000000000000000000000000000000000000000000000000000000000260007f010000000000000000000000000000000000000000000000000000000000000002308a8a8a60005460405180887effffffffffffffffffffffffffffffffffffffffffffffffffffffffffffff19167effffffffffffffffffffffffffffffffffffffffffffffffffffffffffffff19168152600101877effffffffffffffffffffffffffffffffffffffffffffffffffffffffffffff19167effffffffffffffffffffffffffffffffffffffffffffffffffffffffffffff191681526001018673ffffffffffffffffffffffffffffffffffffffff1673ffffffffffffffffffffffffffffffffffffffff166c010000000000000000000000000281526014018573ffffffffffffffffffffffffffffffffffffffff1673ffffffffffffffffffffffffffffffffffffffff166c0100000000000000000000000002815260140184815260200183805190602001908083835b602083101515610994578051825260208201915060208101905060208303925061096f565b6001836020036101000a0380198251168184511680821785525050505050509050018281526020019750505050505050506040518091039020945060009350600092505b600154831015610d16576001858c858151811015156109f357fe5b906020019060200201518c86815181101515610a0b57fe5b906020019060200201518c87815181101515610a2357fe5b90602001906020020151604051600081526020016040526040518085600019166000191681526020018460ff1660ff1681526020018360001916600019168152602001826000191660001916815260200194505050505060206040516020810390808403906000865af1158015610a9e573d6000803e3d6000fd5b505050602060405103519150600073ffffffffffffffffffffffffffffffffffffffff168273ffffffffffffffffffffffffffffffffffffffff1614151515610b75576040517f08c379a00000000000000000000000000000000000000000000000000000000081526004018080602001828103825260218152602001807f65637265636f76657265642061646472657373206d757374206e6f742062652081526020017f300000000000000000000000000000000000000000000000000000000000000081525060400191505060405180910390fd5b8373ffffffffffffffffffffffffffffffffffffffff168273ffffffffffffffffffffffffffffffffffffffff16111515610c18576040517f08c379a000000000000000000000000000000000000000000000000000000000815260040180806020018281038252601d8152602001807f70726f626c656d2077697468206f72646572206f66207369676e65727300000081525060200191505060405180910390fd5b60011515600260008473ffffffffffffffffffffffffffffffffffffffff1673ffffffffffffffffffffffffffffffffffffffff16815260200190815260200160002060009054906101000a900460ff161515141515610d06576040517f08c379a00000000000000000000000000000000000000000000000000000000081526004018080602001828103825260238152602001807f65637265636f766572656420616464726573732073686f756c64206265206f7781526020017f6e6572000000000000000000000000000000000000000000000000000000000081525060400191505060405180910390fd5b81935082806001019350506109d8565b600160005401600081905550600090506000808751602089018a8c5af19050801515610dd0576040517f08c379a00000000000000000000000000000000000000000000000000000000081526004018080602001828103825260368152602001807f63616c6c696e672064657374696e6174696f6e206d6574686f64206661696c6581526020017f642c20666f7220756e6b6e6f776e20726561736f6e730000000000000000000081525060400191505060405180910390fd5b50505050505050505050505600a165627a7a723058203673484d55e2a19d8e48e5c50a859f10d489c97c22b0018271ad038292c91d160029",
  "source": "pragma solidity ^0.4.22;\n\ncontract SimpleMultiSig {\n\n  uint public nonce;                 // (only) mutable state\n  uint public threshold;             // immutable state\n  mapping (address => bool) public isOwner; // immutable state\n  address[] public ownersArr;        // immutable state\n\n  // Note that owners_ must be strictly increasing, in order to prevent duplicates\n  constructor(uint threshold_, address[] owners_) public {\n    require(owners_.length <= 10, \"owners must be less than 10\");\n    require(threshold_ <= owners_.length, \"threshold must not be greater than number of owners\");\n    require(threshold_ >= 0, \"thresholds has to be or larger\");\n\n    address lastAdd = address(0);\n    for (uint i = 0; i < owners_.length; i++) {\n      require(owners_[i] > lastAdd, \"problem with order of owners\");\n      isOwner[owners_[i]] = true;\n      lastAdd = owners_[i];\n    }\n    ownersArr = owners_;\n    threshold = threshold_;\n  }\n\n  // Note that address recovered from signatures must be strictly increasing, in order to prevent duplicates\n  function execute(uint8[] sigV, bytes32[] sigR, bytes32[] sigS, address destination, uint value, bytes data) public {\n    require(sigR.length == threshold, \"number of input signatures doesn't match threshold\");\n    require(sigR.length == sigS.length && sigR.length == sigV.length, \"lengths of V, R, S is not equal\");\n\n    // Follows ERC191 signature scheme: https://github.com/ethereum/EIPs/issues/191\n    bytes32 txHash = keccak256(byte(0x19), byte(0), this, destination, value, data, nonce);\n\n    address lastAdd = address(0); // cannot have address(0) as an owner\n    for (uint i = 0; i < threshold; i++) {\n      address recovered = ecrecover(txHash, sigV[i], sigR[i], sigS[i]);\n      require(recovered != address(0), \"ecrecovered address must not be 0\");\n      require(recovered > lastAdd, \"problem with order of signers\");\n      require(isOwner[recovered] == true, \"ecrecovered address should be owner\");\n      lastAdd = recovered;\n    }\n\n    // If we make it here all signatures are accounted for.\n    // The address.call() syntax is no longer recommended, see:\n    // https://github.com/ethereum/solidity/issues/2884\n    nonce = nonce + 1;\n    bool success = false;\n    assembly { success := call(gas, destination, value, add(data, 0x20), mload(data), 0, 0) }\n    require(success, \"calling destination method failed, for unknown reasons\");\n  }\n\n  function testRecover(uint8 sigV, bytes32 sigR, bytes32 sigS, address destination, uint value, bytes data) public returns(address recovered) {\n    // Follows ERC191 signature scheme: https://github.com/ethereum/EIPs/issues/191\n    bytes32 txHash = keccak256(byte(0x19), byte(0), this, destination, value, data, nonce);\n    return ecrecover(txHash, sigV, sigR, sigS);\n  }\n\n  function () payable public {}\n}\n",
  "sourcePath": "/Users/julian/work-git/multisig-contracts/ethereum/contracts/SimpleMultiSig.sol",
  "compiler": {
    "name": "solc",
    "version": "0.4.24+commit.e67f0147.Emscripten.clang"
  },
  "schemaVersion": "2.0.1",
  "updatedAt": "2018-11-28T15:01:34.645Z"
}